{
	"_format": "hh-sol-artifact-1",
	"contractName": "ToDoApp",
	"sourceName": "contracts/ToDoApp.sol",
	"abi": [
		{
			"inputs": [
				{
					"internalType": "uint256",
					"name": "_id",
					"type": "uint256"
				}
			],
			"name": "completeToDo",
			"outputs": [],
			"stateMutability": "nonpayable",
			"type": "function"
		},
		{
			"inputs": [
				{
					"internalType": "string",
					"name": "_content",
					"type": "string"
				},
				{
					"internalType": "string",
					"name": "_priority",
					"type": "string"
				},
				{
					"internalType": "string",
					"name": "_deadline",
					"type": "string"
				}
			],
			"name": "createTodo",
			"outputs": [],
			"stateMutability": "nonpayable",
			"type": "function"
		},
		{
			"inputs": [],
			"name": "getAllToDos",
			"outputs": [
				{
					"components": [
						{
							"internalType": "uint256",
							"name": "id",
							"type": "uint256"
						},
						{
							"internalType": "string",
							"name": "content",
							"type": "string"
						},
						{
							"internalType": "string",
							"name": "priority",
							"type": "string"
						},
						{
							"internalType": "bool",
							"name": "completed",
							"type": "bool"
						},
						{
							"internalType": "string",
							"name": "deadline",
							"type": "string"
						},
						{
							"internalType": "uint256",
							"name": "timestamp",
							"type": "uint256"
						},
						{
							"internalType": "address",
							"name": "owner",
							"type": "address"
						}
					],
					"internalType": "struct ToDoApp.ToDoStruct[]",
					"name": "",
					"type": "tuple[]"
				}
			],
			"stateMutability": "view",
			"type": "function"
		},
		{
			"inputs": [],
			"name": "getToDoCount",
			"outputs": [
				{
					"internalType": "uint256",
					"name": "",
					"type": "uint256"
				}
			],
			"stateMutability": "view",
			"type": "function"
		},
		{
			"inputs": [
				{
					"internalType": "address",
					"name": "",
					"type": "address"
				},
				{
					"internalType": "uint256",
					"name": "",
					"type": "uint256"
				}
			],
			"name": "ownerToIds",
			"outputs": [
				{
					"internalType": "uint256",
					"name": "",
					"type": "uint256"
				}
			],
			"stateMutability": "view",
			"type": "function"
		},
		{
			"inputs": [
				{
					"internalType": "uint256",
					"name": "",
					"type": "uint256"
				}
			],
			"name": "toDoToOwner",
			"outputs": [
				{
					"internalType": "address",
					"name": "",
					"type": "address"
				}
			],
			"stateMutability": "view",
			"type": "function"
		},
		{
			"inputs": [
				{
					"internalType": "uint256",
					"name": "",
					"type": "uint256"
				}
			],
			"name": "todos",
			"outputs": [
				{
					"internalType": "uint256",
					"name": "id",
					"type": "uint256"
				},
				{
					"internalType": "string",
					"name": "content",
					"type": "string"
				},
				{
					"internalType": "string",
					"name": "priority",
					"type": "string"
				},
				{
					"internalType": "bool",
					"name": "completed",
					"type": "bool"
				},
				{
					"internalType": "string",
					"name": "deadline",
					"type": "string"
				},
				{
					"internalType": "uint256",
					"name": "timestamp",
					"type": "uint256"
				},
				{
					"internalType": "address",
					"name": "owner",
					"type": "address"
				}
			],
			"stateMutability": "view",
			"type": "function"
		}
	],
	"bytecode": "0x608060405234801561001057600080fd5b5061162d806100206000396000f3fe608060405234801561001057600080fd5b506004361061007d5760003560e01c80639a304e1a1161005b5780639a304e1a146100ec578063bc8bc2b41461010a578063cacc706714610140578063feb3d3d61461015c5761007d565b8063012c1a5b14610082578063637ecf07146100a0578063642a6fbc146100d0575b600080fd5b61008a61018c565b604051610097919061128c565b60405180910390f35b6100ba60048036038101906100b59190610f1b565b6101d6565b6040516100c7919061120f565b60405180910390f35b6100ea60048036038101906100e59190610f1b565b610209565b005b6100f4610349565b604051610101919061122a565b60405180910390f35b610124600480360381019061011f9190610f1b565b6107cc565b60405161013797969594939291906112a7565b60405180910390f35b61015a60048036038101906101559190610e84565b6109e3565b005b61017660048036038101906101719190610e48565b610c8d565b604051610183919061128c565b60405180910390f35b6000600260003373ffffffffffffffffffffffffffffffffffffffff1673ffffffffffffffffffffffffffffffffffffffff16815260200190815260200160002080549050905090565b60016020528060005260406000206000915054906101000a900473ffffffffffffffffffffffffffffffffffffffff1681565b3373ffffffffffffffffffffffffffffffffffffffff166000828154811061025a577f4e487b7100000000000000000000000000000000000000000000000000000000600052603260045260246000fd5b906000526020600020906007020160060160009054906101000a900473ffffffffffffffffffffffffffffffffffffffff1673ffffffffffffffffffffffffffffffffffffffff16146102e2576040517f08c379a00000000000000000000000000000000000000000000000000000000081526004016102d99061126c565b60405180910390fd5b60016000828154811061031e577f4e487b7100000000000000000000000000000000000000000000000000000000600052603260045260246000fd5b906000526020600020906007020160030160006101000a81548160ff02191690831515021790555050565b60606000600260003373ffffffffffffffffffffffffffffffffffffffff1673ffffffffffffffffffffffffffffffffffffffff1681526020019081526020016000208054905067ffffffffffffffff8111156103cf577f4e487b7100000000000000000000000000000000000000000000000000000000600052604160045260246000fd5b60405190808252806020026020018201604052801561040857816020015b6103f5610cbe565b8152602001906001900390816103ed5790505b50905060005b600260003373ffffffffffffffffffffffffffffffffffffffff1673ffffffffffffffffffffffffffffffffffffffff168152602001908152602001600020805490508110156107c4576000600260003373ffffffffffffffffffffffffffffffffffffffff1673ffffffffffffffffffffffffffffffffffffffff16815260200190815260200160002082815481106104d1577f4e487b7100000000000000000000000000000000000000000000000000000000600052603260045260246000fd5b9060005260206000200154905060008181548110610518577f4e487b7100000000000000000000000000000000000000000000000000000000600052603260045260246000fd5b90600052602060002090600702016040518060e00160405290816000820154815260200160018201805461054b906114b0565b80601f0160208091040260200160405190810160405280929190818152602001828054610577906114b0565b80156105c45780601f10610599576101008083540402835291602001916105c4565b820191906000526020600020905b8154815290600101906020018083116105a757829003601f168201915b505050505081526020016002820180546105dd906114b0565b80601f0160208091040260200160405190810160405280929190818152602001828054610609906114b0565b80156106565780601f1061062b57610100808354040283529160200191610656565b820191906000526020600020905b81548152906001019060200180831161063957829003601f168201915b505050505081526020016003820160009054906101000a900460ff1615151515815260200160048201805461068a906114b0565b80601f01602080910402602001604051908101604052809291908181526020018280546106b6906114b0565b80156107035780601f106106d857610100808354040283529160200191610703565b820191906000526020600020905b8154815290600101906020018083116106e657829003601f168201915b50505050508152602001600582015481526020016006820160009054906101000a900473ffffffffffffffffffffffffffffffffffffffff1673ffffffffffffffffffffffffffffffffffffffff1673ffffffffffffffffffffffffffffffffffffffff16815250508383815181106107a5577f4e487b7100000000000000000000000000000000000000000000000000000000600052603260045260246000fd5b60200260200101819052505080806107bc906114e2565b91505061040e565b508091505090565b600081815481106107dc57600080fd5b9060005260206000209060070201600091509050806000015490806001018054610805906114b0565b80601f0160208091040260200160405190810160405280929190818152602001828054610831906114b0565b801561087e5780601f106108535761010080835404028352916020019161087e565b820191906000526020600020905b81548152906001019060200180831161086157829003601f168201915b505050505090806002018054610893906114b0565b80601f01602080910402602001604051908101604052809291908181526020018280546108bf906114b0565b801561090c5780601f106108e15761010080835404028352916020019161090c565b820191906000526020600020905b8154815290600101906020018083116108ef57829003601f168201915b5050505050908060030160009054906101000a900460ff1690806004018054610934906114b0565b80601f0160208091040260200160405190810160405280929190818152602001828054610960906114b0565b80156109ad5780601f10610982576101008083540402835291602001916109ad565b820191906000526020600020905b81548152906001019060200180831161099057829003601f168201915b5050505050908060050154908060060160009054906101000a900473ffffffffffffffffffffffffffffffffffffffff16905087565b600a600260003373ffffffffffffffffffffffffffffffffffffffff1673ffffffffffffffffffffffffffffffffffffffff168152602001908152602001600020805490501115610a69576040517f08c379a0000000000000000000000000000000000000000000000000000000008152600401610a609061124c565b60405180910390fd5b60006040518060e0016040528060008054905081526020018581526020018481526020016000151581526020018381526020014281526020013373ffffffffffffffffffffffffffffffffffffffff168152509080600181540180825580915050600190039060005260206000209060070201600090919091909150600082015181600001556020820151816001019080519060200190610b0b929190610d13565b506040820151816002019080519060200190610b28929190610d13565b5060608201518160030160006101000a81548160ff0219169083151502179055506080820151816004019080519060200190610b65929190610d13565b5060a0820151816005015560c08201518160060160006101000a81548173ffffffffffffffffffffffffffffffffffffffff021916908373ffffffffffffffffffffffffffffffffffffffff160217905550505060006001600080549050610bcd91906113f2565b9050336001600083815260200190815260200160002060006101000a81548173ffffffffffffffffffffffffffffffffffffffff021916908373ffffffffffffffffffffffffffffffffffffffff160217905550600260003373ffffffffffffffffffffffffffffffffffffffff1673ffffffffffffffffffffffffffffffffffffffff16815260200190815260200160002081908060018154018082558091505060019003906000526020600020016000909190919091505550505050565b60026020528160005260406000208181548110610ca957600080fd5b90600052602060002001600091509150505481565b6040518060e001604052806000815260200160608152602001606081526020016000151581526020016060815260200160008152602001600073ffffffffffffffffffffffffffffffffffffffff1681525090565b828054610d1f906114b0565b90600052602060002090601f016020900481019282610d415760008555610d88565b82601f10610d5a57805160ff1916838001178555610d88565b82800160010185558215610d88579182015b82811115610d87578251825591602001919060010190610d6c565b5b509050610d959190610d99565b5090565b5b80821115610db2576000816000905550600101610d9a565b5090565b6000610dc9610dc48461135c565b61132b565b905082815260208101848484011115610de157600080fd5b610dec84828561146e565b509392505050565b600081359050610e03816115c9565b92915050565b600082601f830112610e1a57600080fd5b8135610e2a848260208601610db6565b91505092915050565b600081359050610e42816115e0565b92915050565b60008060408385031215610e5b57600080fd5b6000610e6985828601610df4565b9250506020610e7a85828601610e33565b9150509250929050565b600080600060608486031215610e9957600080fd5b600084013567ffffffffffffffff811115610eb357600080fd5b610ebf86828701610e09565b935050602084013567ffffffffffffffff811115610edc57600080fd5b610ee886828701610e09565b925050604084013567ffffffffffffffff811115610f0557600080fd5b610f1186828701610e09565b9150509250925092565b600060208284031215610f2d57600080fd5b6000610f3b84828501610e33565b91505092915050565b6000610f508383611147565b905092915050565b610f6181611426565b82525050565b610f7081611426565b82525050565b6000610f818261139c565b610f8b81856113bf565b935083602082028501610f9d8561138c565b8060005b85811015610fd95784840389528151610fba8582610f44565b9450610fc5836113b2565b925060208a01995050600181019050610fa1565b50829750879550505050505092915050565b610ff481611438565b82525050565b61100381611438565b82525050565b6000611014826113a7565b61101e81856113d0565b935061102e81856020860161147d565b611037816115b8565b840191505092915050565b600061104d826113a7565b61105781856113e1565b935061106781856020860161147d565b611070816115b8565b840191505092915050565b60006110886026836113e1565b91507f596f75206861766520616c7265616479206372656174656420656e6f7567682060008301527f746f646f732e00000000000000000000000000000000000000000000000000006020830152604082019050919050565b60006110ee603b836113e1565b91507f596f752063616e6e6f7420636f6d706c65746520746f646f207461736b20746860008301527f617420646f6573206e6f742062656c6f6e677320746f20796f752e00000000006020830152604082019050919050565b600060e08301600083015161115f60008601826111f1565b50602083015184820360208601526111778282611009565b915050604083015184820360408601526111918282611009565b91505060608301516111a66060860182610feb565b50608083015184820360808601526111be8282611009565b91505060a08301516111d360a08601826111f1565b5060c08301516111e660c0860182610f58565b508091505092915050565b6111fa81611464565b82525050565b61120981611464565b82525050565b60006020820190506112246000830184610f67565b92915050565b600060208201905081810360008301526112448184610f76565b905092915050565b600060208201905081810360008301526112658161107b565b9050919050565b60006020820190508181036000830152611285816110e1565b9050919050565b60006020820190506112a16000830184611200565b92915050565b600060e0820190506112bc600083018a611200565b81810360208301526112ce8189611042565b905081810360408301526112e28188611042565b90506112f16060830187610ffa565b81810360808301526113038186611042565b905061131260a0830185611200565b61131f60c0830184610f67565b98975050505050505050565b6000604051905081810181811067ffffffffffffffff8211171561135257611351611589565b5b8060405250919050565b600067ffffffffffffffff82111561137757611376611589565b5b601f19601f8301169050602081019050919050565b6000819050602082019050919050565b600081519050919050565b600081519050919050565b6000602082019050919050565b600082825260208201905092915050565b600082825260208201905092915050565b600082825260208201905092915050565b60006113fd82611464565b915061140883611464565b92508282101561141b5761141a61152b565b5b828203905092915050565b600061143182611444565b9050919050565b60008115159050919050565b600073ffffffffffffffffffffffffffffffffffffffff82169050919050565b6000819050919050565b82818337600083830152505050565b60005b8381101561149b578082015181840152602081019050611480565b838111156114aa576000848401525b50505050565b600060028204905060018216806114c857607f821691505b602082108114156114dc576114db61155a565b5b50919050565b60006114ed82611464565b91507fffffffffffffffffffffffffffffffffffffffffffffffffffffffffffffffff8214156115205761151f61152b565b5b600182019050919050565b7f4e487b7100000000000000000000000000000000000000000000000000000000600052601160045260246000fd5b7f4e487b7100000000000000000000000000000000000000000000000000000000600052602260045260246000fd5b7f4e487b7100000000000000000000000000000000000000000000000000000000600052604160045260246000fd5b6000601f19601f8301169050919050565b6115d281611426565b81146115dd57600080fd5b50565b6115e981611464565b81146115f457600080fd5b5056fea2646970667358221220e1a16154671e162f04ce07d0d1e5afe439fac004fc04e4faceafe1ca380cf21264736f6c63430008000033",
	"linkReferences": {},
	"deployedLinkReferences": {}
}