{
  "contractName": "Token",
  "abi": [
    {
      "inputs": [
        {
          "internalType": "string",
          "name": "name",
          "type": "string"
        },
        {
          "internalType": "string",
          "name": "symbol",
          "type": "string"
        }
      ],
      "stateMutability": "nonpayable",
      "type": "constructor"
    },
    {
      "anonymous": false,
      "inputs": [
        {
          "indexed": true,
          "internalType": "address",
          "name": "owner",
          "type": "address"
        },
        {
          "indexed": true,
          "internalType": "address",
          "name": "approved",
          "type": "address"
        },
        {
          "indexed": true,
          "internalType": "uint256",
          "name": "tokenId",
          "type": "uint256"
        }
      ],
      "name": "Approval",
      "type": "event"
    },
    {
      "anonymous": false,
      "inputs": [
        {
          "indexed": true,
          "internalType": "address",
          "name": "owner",
          "type": "address"
        },
        {
          "indexed": true,
          "internalType": "address",
          "name": "operator",
          "type": "address"
        },
        {
          "indexed": false,
          "internalType": "bool",
          "name": "approved",
          "type": "bool"
        }
      ],
      "name": "ApprovalForAll",
      "type": "event"
    },
    {
      "anonymous": false,
      "inputs": [
        {
          "indexed": true,
          "internalType": "address",
          "name": "previousOwner",
          "type": "address"
        },
        {
          "indexed": true,
          "internalType": "address",
          "name": "newOwner",
          "type": "address"
        }
      ],
      "name": "OwnershipTransferred",
      "type": "event"
    },
    {
      "anonymous": false,
      "inputs": [
        {
          "indexed": true,
          "internalType": "address",
          "name": "from",
          "type": "address"
        },
        {
          "indexed": true,
          "internalType": "address",
          "name": "to",
          "type": "address"
        },
        {
          "indexed": true,
          "internalType": "uint256",
          "name": "tokenId",
          "type": "uint256"
        }
      ],
      "name": "Transfer",
      "type": "event"
    },
    {
      "inputs": [
        {
          "internalType": "address",
          "name": "to",
          "type": "address"
        },
        {
          "internalType": "uint256",
          "name": "tokenId",
          "type": "uint256"
        }
      ],
      "name": "approve",
      "outputs": [],
      "stateMutability": "nonpayable",
      "type": "function"
    },
    {
      "inputs": [
        {
          "internalType": "address",
          "name": "owner",
          "type": "address"
        }
      ],
      "name": "balanceOf",
      "outputs": [
        {
          "internalType": "uint256",
          "name": "",
          "type": "uint256"
        }
      ],
      "stateMutability": "view",
      "type": "function",
      "constant": true
    },
    {
      "inputs": [
        {
          "internalType": "uint256",
          "name": "tokenId",
          "type": "uint256"
        }
      ],
      "name": "getApproved",
      "outputs": [
        {
          "internalType": "address",
          "name": "",
          "type": "address"
        }
      ],
      "stateMutability": "view",
      "type": "function",
      "constant": true
    },
    {
      "inputs": [
        {
          "internalType": "address",
          "name": "owner",
          "type": "address"
        },
        {
          "internalType": "address",
          "name": "operator",
          "type": "address"
        }
      ],
      "name": "isApprovedForAll",
      "outputs": [
        {
          "internalType": "bool",
          "name": "",
          "type": "bool"
        }
      ],
      "stateMutability": "view",
      "type": "function",
      "constant": true
    },
    {
      "inputs": [],
      "name": "name",
      "outputs": [
        {
          "internalType": "string",
          "name": "",
          "type": "string"
        }
      ],
      "stateMutability": "view",
      "type": "function",
      "constant": true
    },
    {
      "inputs": [],
      "name": "owner",
      "outputs": [
        {
          "internalType": "address",
          "name": "",
          "type": "address"
        }
      ],
      "stateMutability": "view",
      "type": "function",
      "constant": true
    },
    {
      "inputs": [
        {
          "internalType": "uint256",
          "name": "tokenId",
          "type": "uint256"
        }
      ],
      "name": "ownerOf",
      "outputs": [
        {
          "internalType": "address",
          "name": "",
          "type": "address"
        }
      ],
      "stateMutability": "view",
      "type": "function",
      "constant": true
    },
    {
      "inputs": [],
      "name": "renounceOwnership",
      "outputs": [],
      "stateMutability": "nonpayable",
      "type": "function"
    },
    {
      "inputs": [
        {
          "internalType": "address",
          "name": "from",
          "type": "address"
        },
        {
          "internalType": "address",
          "name": "to",
          "type": "address"
        },
        {
          "internalType": "uint256",
          "name": "tokenId",
          "type": "uint256"
        }
      ],
      "name": "safeTransferFrom",
      "outputs": [],
      "stateMutability": "nonpayable",
      "type": "function"
    },
    {
      "inputs": [
        {
          "internalType": "address",
          "name": "from",
          "type": "address"
        },
        {
          "internalType": "address",
          "name": "to",
          "type": "address"
        },
        {
          "internalType": "uint256",
          "name": "tokenId",
          "type": "uint256"
        },
        {
          "internalType": "bytes",
          "name": "_data",
          "type": "bytes"
        }
      ],
      "name": "safeTransferFrom",
      "outputs": [],
      "stateMutability": "nonpayable",
      "type": "function"
    },
    {
      "inputs": [
        {
          "internalType": "address",
          "name": "operator",
          "type": "address"
        },
        {
          "internalType": "bool",
          "name": "approved",
          "type": "bool"
        }
      ],
      "name": "setApprovalForAll",
      "outputs": [],
      "stateMutability": "nonpayable",
      "type": "function"
    },
    {
      "inputs": [
        {
          "internalType": "bytes4",
          "name": "interfaceId",
          "type": "bytes4"
        }
      ],
      "name": "supportsInterface",
      "outputs": [
        {
          "internalType": "bool",
          "name": "",
          "type": "bool"
        }
      ],
      "stateMutability": "view",
      "type": "function",
      "constant": true
    },
    {
      "inputs": [],
      "name": "symbol",
      "outputs": [
        {
          "internalType": "string",
          "name": "",
          "type": "string"
        }
      ],
      "stateMutability": "view",
      "type": "function",
      "constant": true
    },
    {
      "inputs": [
        {
          "internalType": "uint256",
          "name": "tokenId",
          "type": "uint256"
        }
      ],
      "name": "tokenURI",
      "outputs": [
        {
          "internalType": "string",
          "name": "",
          "type": "string"
        }
      ],
      "stateMutability": "view",
      "type": "function",
      "constant": true
    },
    {
      "inputs": [
        {
          "internalType": "address",
          "name": "from",
          "type": "address"
        },
        {
          "internalType": "address",
          "name": "to",
          "type": "address"
        },
        {
          "internalType": "uint256",
          "name": "tokenId",
          "type": "uint256"
        }
      ],
      "name": "transferFrom",
      "outputs": [],
      "stateMutability": "nonpayable",
      "type": "function"
    },
    {
      "inputs": [
        {
          "internalType": "address",
          "name": "newOwner",
          "type": "address"
        }
      ],
      "name": "transferOwnership",
      "outputs": [],
      "stateMutability": "nonpayable",
      "type": "function"
    },
    {
      "inputs": [
        {
          "internalType": "uint8",
          "name": "_damage",
          "type": "uint8"
        },
        {
          "internalType": "uint8",
          "name": "_magic",
          "type": "uint8"
        },
        {
          "internalType": "uint256",
          "name": "_endurance",
          "type": "uint256"
        }
      ],
      "name": "mint",
      "outputs": [],
      "stateMutability": "nonpayable",
      "type": "function"
    },
    {
      "inputs": [
        {
          "internalType": "uint256",
          "name": "_tokenId",
          "type": "uint256"
        }
      ],
      "name": "feed",
      "outputs": [],
      "stateMutability": "nonpayable",
      "type": "function"
    },
    {
      "inputs": [
        {
          "internalType": "uint256",
          "name": "_tokenId",
          "type": "uint256"
        }
      ],
      "name": "getTokenDetails",
      "outputs": [
        {
          "components": [
            {
              "internalType": "uint256",
              "name": "id",
              "type": "uint256"
            },
            {
              "internalType": "string",
              "name": "name",
              "type": "string"
            },
            {
              "internalType": "uint8",
              "name": "damage",
              "type": "uint8"
            },
            {
              "internalType": "uint8",
              "name": "magic",
              "type": "uint8"
            },
            {
              "internalType": "uint256",
              "name": "lastMeal",
              "type": "uint256"
            },
            {
              "internalType": "uint256",
              "name": "endurance",
              "type": "uint256"
            }
          ],
          "internalType": "struct Token.Pet",
          "name": "",
          "type": "tuple"
        }
      ],
      "stateMutability": "view",
      "type": "function",
      "constant": true
    },
    {
      "inputs": [
        {
          "internalType": "address",
          "name": "user",
          "type": "address"
        }
      ],
      "name": "getAllTokensForUser",
      "outputs": [
        {
          "internalType": "uint256[]",
          "name": "result",
          "type": "uint256[]"
        }
      ],
      "stateMutability": "view",
      "type": "function",
      "constant": true
    }
  ],
  "bytecode": "0x608060405260006007553480156200001657600080fd5b50604051620038a2380380620038a283398181016040528101906200003c9190620003b5565b818181600090805190602001906200005692919062000168565b5080600190805190602001906200006f92919062000168565b50505062000092620000866200009a60201b60201c565b620000a260201b60201c565b50506200049e565b600033905090565b6000600660009054906101000a900473ffffffffffffffffffffffffffffffffffffffff16905081600660006101000a81548173ffffffffffffffffffffffffffffffffffffffff021916908373ffffffffffffffffffffffffffffffffffffffff1602179055508173ffffffffffffffffffffffffffffffffffffffff168173ffffffffffffffffffffffffffffffffffffffff167f8be0079c531659141344cd1fd0a4f28419497f9722a3daafe3b4186f6b6457e060405160405180910390a35050565b828054620001769062000469565b90600052602060002090601f0160209004810192826200019a5760008555620001e6565b82601f10620001b557805160ff1916838001178555620001e6565b82800160010185558215620001e6579182015b82811115620001e5578251825591602001919060010190620001c8565b5b509050620001f59190620001f9565b5090565b5b8082111562000214576000816000905550600101620001fa565b5090565b6000604051905090565b600080fd5b600080fd5b600080fd5b600080fd5b6000601f19601f8301169050919050565b7f4e487b7100000000000000000000000000000000000000000000000000000000600052604160045260246000fd5b620002818262000236565b810181811067ffffffffffffffff82111715620002a357620002a262000247565b5b80604052505050565b6000620002b862000218565b9050620002c6828262000276565b919050565b600067ffffffffffffffff821115620002e957620002e862000247565b5b620002f48262000236565b9050602081019050919050565b60005b838110156200032157808201518184015260208101905062000304565b8381111562000331576000848401525b50505050565b60006200034e6200034884620002cb565b620002ac565b9050828152602081018484840111156200036d576200036c62000231565b5b6200037a84828562000301565b509392505050565b600082601f8301126200039a57620003996200022c565b5b8151620003ac84826020860162000337565b91505092915050565b60008060408385031215620003cf57620003ce62000222565b5b600083015167ffffffffffffffff811115620003f057620003ef62000227565b5b620003fe8582860162000382565b925050602083015167ffffffffffffffff81111562000422576200042162000227565b5b620004308582860162000382565b9150509250929050565b7f4e487b7100000000000000000000000000000000000000000000000000000000600052602260045260246000fd5b600060028204905060018216806200048257607f821691505b6020821081036200049857620004976200043a565b5b50919050565b6133f480620004ae6000396000f3fe608060405234801561001057600080fd5b506004361061012c5760003560e01c80638da5cb5b116100ad578063c87b56dd11610071578063c87b56dd14610341578063e985e9c514610371578063eb22ed32146103a1578063f2fde38b146103bd578063f59dfdfb146103d95761012c565b80638da5cb5b1461029d57806395d89b41146102bb578063a22cb465146102d9578063b88d4fde146102f5578063c1e03728146103115761012c565b806342842e0e116100f457806342842e0e146101e75780636352211e1461020357806370a0823114610233578063715018a61461026357806382de8fe91461026d5761012c565b806301ffc9a71461013157806306fdde0314610161578063081812fc1461017f578063095ea7b3146101af57806323b872dd146101cb575b600080fd5b61014b60048036038101906101469190611fbf565b6103f5565b6040516101589190612007565b60405180910390f35b6101696104d7565b60405161017691906120bb565b60405180910390f35b61019960048036038101906101949190612113565b610569565b6040516101a69190612181565b60405180910390f35b6101c960048036038101906101c491906121c8565b6105ee565b005b6101e560048036038101906101e09190612208565b610705565b005b61020160048036038101906101fc9190612208565b610765565b005b61021d60048036038101906102189190612113565b610785565b60405161022a9190612181565b60405180910390f35b61024d6004803603810190610248919061225b565b610836565b60405161025a9190612297565b60405180910390f35b61026b6108ed565b005b6102876004803603810190610282919061225b565b610975565b6040516102949190612370565b60405180910390f35b6102a5610ab5565b6040516102b29190612181565b60405180910390f35b6102c3610adf565b6040516102d091906120bb565b60405180910390f35b6102f360048036038101906102ee91906123be565b610b71565b005b61030f600480360381019061030a9190612533565b610b87565b005b61032b60048036038101906103269190612113565b610be9565b60405161033891906126a5565b60405180910390f35b61035b60048036038101906103569190612113565b610d00565b60405161036891906120bb565b60405180910390f35b61038b600480360381019061038691906126c7565b610da7565b6040516103989190612007565b60405180910390f35b6103bb60048036038101906103b69190612733565b610e3b565b005b6103d760048036038101906103d2919061225b565b610fd3565b005b6103f360048036038101906103ee9190612113565b6110ca565b005b60007f80ac58cd000000000000000000000000000000000000000000000000000000007bffffffffffffffffffffffffffffffffffffffffffffffffffffffff1916827bffffffffffffffffffffffffffffffffffffffffffffffffffffffff191614806104c057507f5b5e139f000000000000000000000000000000000000000000000000000000007bffffffffffffffffffffffffffffffffffffffffffffffffffffffff1916827bffffffffffffffffffffffffffffffffffffffffffffffffffffffff1916145b806104d057506104cf8261111f565b5b9050919050565b6060600080546104e6906127b5565b80601f0160208091040260200160405190810160405280929190818152602001828054610512906127b5565b801561055f5780601f106105345761010080835404028352916020019161055f565b820191906000526020600020905b81548152906001019060200180831161054257829003601f168201915b5050505050905090565b600061057482611189565b6105b3576040517f08c379a00000000000000000000000000000000000000000000000000000000081526004016105aa90612858565b60405180910390fd5b6004600083815260200190815260200160002060009054906101000a900473ffffffffffffffffffffffffffffffffffffffff169050919050565b60006105f982610785565b90508073ffffffffffffffffffffffffffffffffffffffff168373ffffffffffffffffffffffffffffffffffffffff1603610669576040517f08c379a0000000000000000000000000000000000000000000000000000000008152600401610660906128ea565b60405180910390fd5b8073ffffffffffffffffffffffffffffffffffffffff166106886111f5565b73ffffffffffffffffffffffffffffffffffffffff1614806106b757506106b6816106b16111f5565b610da7565b5b6106f6576040517f08c379a00000000000000000000000000000000000000000000000000000000081526004016106ed9061297c565b60405180910390fd5b61070083836111fd565b505050565b6107166107106111f5565b826112b6565b610755576040517f08c379a000000000000000000000000000000000000000000000000000000000815260040161074c90612a0e565b60405180910390fd5b610760838383611394565b505050565b61078083838360405180602001604052806000815250610b87565b505050565b6000806002600084815260200190815260200160002060009054906101000a900473ffffffffffffffffffffffffffffffffffffffff169050600073ffffffffffffffffffffffffffffffffffffffff168173ffffffffffffffffffffffffffffffffffffffff160361082d576040517f08c379a000000000000000000000000000000000000000000000000000000000815260040161082490612aa0565b60405180910390fd5b80915050919050565b60008073ffffffffffffffffffffffffffffffffffffffff168273ffffffffffffffffffffffffffffffffffffffff16036108a6576040517f08c379a000000000000000000000000000000000000000000000000000000000815260040161089d90612b32565b60405180910390fd5b600360008373ffffffffffffffffffffffffffffffffffffffff1673ffffffffffffffffffffffffffffffffffffffff168152602001908152602001600020549050919050565b6108f56111f5565b73ffffffffffffffffffffffffffffffffffffffff16610913610ab5565b73ffffffffffffffffffffffffffffffffffffffff1614610969576040517f08c379a000000000000000000000000000000000000000000000000000000000815260040161096090612b9e565b60405180910390fd5b61097360006115fa565b565b6060600061098283610836565b9050600081036109de57600067ffffffffffffffff8111156109a7576109a6612408565b5b6040519080825280602002602001820160405280156109d55781602001602082028036833780820191505090505b50915050610ab0565b8067ffffffffffffffff8111156109f8576109f7612408565b5b604051908082528060200260200182016040528015610a265781602001602082028036833780820191505090505b509150600060075490506000805b82811015610aab578573ffffffffffffffffffffffffffffffffffffffff16610a5c82610785565b73ffffffffffffffffffffffffffffffffffffffff1603610a985780858381518110610a8b57610a8a612bbe565b5b6020026020010181815250505b8080610aa390612c1c565b915050610a34565b505050505b919050565b6000600660009054906101000a900473ffffffffffffffffffffffffffffffffffffffff16905090565b606060018054610aee906127b5565b80601f0160208091040260200160405190810160405280929190818152602001828054610b1a906127b5565b8015610b675780601f10610b3c57610100808354040283529160200191610b67565b820191906000526020600020905b815481529060010190602001808311610b4a57829003601f168201915b5050505050905090565b610b83610b7c6111f5565b83836116c0565b5050565b610b98610b926111f5565b836112b6565b610bd7576040517f08c379a0000000000000000000000000000000000000000000000000000000008152600401610bce90612a0e565b60405180910390fd5b610be38484848461182c565b50505050565b610bf1611e74565b600860008381526020019081526020016000206040518060c001604052908160008201548152602001600182018054610c29906127b5565b80601f0160208091040260200160405190810160405280929190818152602001828054610c55906127b5565b8015610ca25780601f10610c7757610100808354040283529160200191610ca2565b820191906000526020600020905b815481529060010190602001808311610c8557829003601f168201915b505050505081526020016002820160009054906101000a900460ff1660ff1660ff1681526020016002820160019054906101000a900460ff1660ff1660ff168152602001600382015481526020016004820154815250509050919050565b6060610d0b82611189565b610d4a576040517f08c379a0000000000000000000000000000000000000000000000000000000008152600401610d4190612cd6565b60405180910390fd5b6000610d54611888565b90506000815111610d745760405180602001604052806000815250610d9f565b80610d7e8461189f565b604051602001610d8f929190612d32565b6040516020818303038152906040525b915050919050565b6000600560008473ffffffffffffffffffffffffffffffffffffffff1673ffffffffffffffffffffffffffffffffffffffff16815260200190815260200160002060008373ffffffffffffffffffffffffffffffffffffffff1673ffffffffffffffffffffffffffffffffffffffff16815260200190815260200160002060009054906101000a900460ff16905092915050565b610e436111f5565b73ffffffffffffffffffffffffffffffffffffffff16610e61610ab5565b73ffffffffffffffffffffffffffffffffffffffff1614610eb7576040517f08c379a0000000000000000000000000000000000000000000000000000000008152600401610eae90612b9e565b60405180910390fd5b6040518060c001604052806007548152602001610ed560075461189f565b604051602001610ee59190612d7c565b60405160208183030381529060405281526020018460ff1681526020018360ff16815260200142815260200182815250600860006007548152602001908152602001600020600082015181600001556020820151816001019080519060200190610f50929190611eb0565b5060408201518160020160006101000a81548160ff021916908360ff16021790555060608201518160020160016101000a81548160ff021916908360ff1602179055506080820151816003015560a08201518160040155905050610fb6336007546119ff565b60076000815480929190610fc990612c1c565b9190505550505050565b610fdb6111f5565b73ffffffffffffffffffffffffffffffffffffffff16610ff9610ab5565b73ffffffffffffffffffffffffffffffffffffffff161461104f576040517f08c379a000000000000000000000000000000000000000000000000000000000815260040161104690612b9e565b60405180910390fd5b600073ffffffffffffffffffffffffffffffffffffffff168173ffffffffffffffffffffffffffffffffffffffff16036110be576040517f08c379a00000000000000000000000000000000000000000000000000000000081526004016110b590612e14565b60405180910390fd5b6110c7816115fa565b50565b600060086000838152602001908152602001600020905042816004015482600301546110f69190612e34565b1161110057600080fd5b4260086000848152602001908152602001600020600301819055505050565b60007f01ffc9a7000000000000000000000000000000000000000000000000000000007bffffffffffffffffffffffffffffffffffffffffffffffffffffffff1916827bffffffffffffffffffffffffffffffffffffffffffffffffffffffff1916149050919050565b60008073ffffffffffffffffffffffffffffffffffffffff166002600084815260200190815260200160002060009054906101000a900473ffffffffffffffffffffffffffffffffffffffff1673ffffffffffffffffffffffffffffffffffffffff1614159050919050565b600033905090565b816004600083815260200190815260200160002060006101000a81548173ffffffffffffffffffffffffffffffffffffffff021916908373ffffffffffffffffffffffffffffffffffffffff160217905550808273ffffffffffffffffffffffffffffffffffffffff1661127083610785565b73ffffffffffffffffffffffffffffffffffffffff167f8c5be1e5ebec7d5bd14f71427d1e84f3dd0314c0f7b2291e5b200ac8c7c3b92560405160405180910390a45050565b60006112c182611189565b611300576040517f08c379a00000000000000000000000000000000000000000000000000000000081526004016112f790612efc565b60405180910390fd5b600061130b83610785565b90508073ffffffffffffffffffffffffffffffffffffffff168473ffffffffffffffffffffffffffffffffffffffff16148061134d575061134c8185610da7565b5b8061138b57508373ffffffffffffffffffffffffffffffffffffffff1661137384610569565b73ffffffffffffffffffffffffffffffffffffffff16145b91505092915050565b8273ffffffffffffffffffffffffffffffffffffffff166113b482610785565b73ffffffffffffffffffffffffffffffffffffffff161461140a576040517f08c379a000000000000000000000000000000000000000000000000000000000815260040161140190612f8e565b60405180910390fd5b600073ffffffffffffffffffffffffffffffffffffffff168273ffffffffffffffffffffffffffffffffffffffff1603611479576040517f08c379a000000000000000000000000000000000000000000000000000000000815260040161147090613020565b60405180910390fd5b611484838383611a1d565b61148f6000826111fd565b6001600360008573ffffffffffffffffffffffffffffffffffffffff1673ffffffffffffffffffffffffffffffffffffffff16815260200190815260200160002060008282546114df9190613040565b925050819055506001600360008473ffffffffffffffffffffffffffffffffffffffff1673ffffffffffffffffffffffffffffffffffffffff16815260200190815260200160002060008282546115369190612e34565b92505081905550816002600083815260200190815260200160002060006101000a81548173ffffffffffffffffffffffffffffffffffffffff021916908373ffffffffffffffffffffffffffffffffffffffff160217905550808273ffffffffffffffffffffffffffffffffffffffff168473ffffffffffffffffffffffffffffffffffffffff167fddf252ad1be2c89b69c2b068fc378daa952ba7f163c4a11628f55a4df523b3ef60405160405180910390a46115f5838383611a91565b505050565b6000600660009054906101000a900473ffffffffffffffffffffffffffffffffffffffff16905081600660006101000a81548173ffffffffffffffffffffffffffffffffffffffff021916908373ffffffffffffffffffffffffffffffffffffffff1602179055508173ffffffffffffffffffffffffffffffffffffffff168173ffffffffffffffffffffffffffffffffffffffff167f8be0079c531659141344cd1fd0a4f28419497f9722a3daafe3b4186f6b6457e060405160405180910390a35050565b8173ffffffffffffffffffffffffffffffffffffffff168373ffffffffffffffffffffffffffffffffffffffff160361172e576040517f08c379a0000000000000000000000000000000000000000000000000000000008152600401611725906130c0565b60405180910390fd5b80600560008573ffffffffffffffffffffffffffffffffffffffff1673ffffffffffffffffffffffffffffffffffffffff16815260200190815260200160002060008473ffffffffffffffffffffffffffffffffffffffff1673ffffffffffffffffffffffffffffffffffffffff16815260200190815260200160002060006101000a81548160ff0219169083151502179055508173ffffffffffffffffffffffffffffffffffffffff168373ffffffffffffffffffffffffffffffffffffffff167f17307eab39ab6107e8899845ad3d59bd9653f200f220920489ca2b5937696c318360405161181f9190612007565b60405180910390a3505050565b611837848484611394565b61184384848484611a96565b611882576040517f08c379a000000000000000000000000000000000000000000000000000000000815260040161187990613152565b60405180910390fd5b50505050565b606060405180602001604052806000815250905090565b6060600082036118e6576040518060400160405280600181526020017f300000000000000000000000000000000000000000000000000000000000000081525090506119fa565b600082905060005b6000821461191857808061190190612c1c565b915050600a8261191191906131a1565b91506118ee565b60008167ffffffffffffffff81111561193457611933612408565b5b6040519080825280601f01601f1916602001820160405280156119665781602001600182028036833780820191505090505b5090505b600085146119f35760018261197f9190613040565b9150600a8561198e91906131d2565b603061199a9190612e34565b60f81b8183815181106119b0576119af612bbe565b5b60200101907effffffffffffffffffffffffffffffffffffffffffffffffffffffffffffff1916908160001a905350600a856119ec91906131a1565b945061196a565b8093505050505b919050565b611a19828260405180602001604052806000815250611c1d565b5050565b60006008600083815260200190815260200160002090508373ffffffffffffffffffffffffffffffffffffffff168373ffffffffffffffffffffffffffffffffffffffff1603611a6c57600080fd5b4281600401548260030154611a819190612e34565b11611a8b57600080fd5b50505050565b505050565b6000611ab78473ffffffffffffffffffffffffffffffffffffffff16611c78565b15611c10578373ffffffffffffffffffffffffffffffffffffffff1663150b7a02611ae06111f5565b8786866040518563ffffffff1660e01b8152600401611b029493929190613258565b6020604051808303816000875af1925050508015611b3e57506040513d601f19601f82011682018060405250810190611b3b91906132b9565b60015b611bc0573d8060008114611b6e576040519150601f19603f3d011682016040523d82523d6000602084013e611b73565b606091505b506000815103611bb8576040517f08c379a0000000000000000000000000000000000000000000000000000000008152600401611baf90613152565b60405180910390fd5b805181602001fd5b63150b7a0260e01b7bffffffffffffffffffffffffffffffffffffffffffffffffffffffff1916817bffffffffffffffffffffffffffffffffffffffffffffffffffffffff191614915050611c15565b600190505b949350505050565b611c278383611c9b565b611c346000848484611a96565b611c73576040517f08c379a0000000000000000000000000000000000000000000000000000000008152600401611c6a90613152565b60405180910390fd5b505050565b6000808273ffffffffffffffffffffffffffffffffffffffff163b119050919050565b600073ffffffffffffffffffffffffffffffffffffffff168273ffffffffffffffffffffffffffffffffffffffff1603611d0a576040517f08c379a0000000000000000000000000000000000000000000000000000000008152600401611d0190613332565b60405180910390fd5b611d1381611189565b15611d53576040517f08c379a0000000000000000000000000000000000000000000000000000000008152600401611d4a9061339e565b60405180910390fd5b611d5f60008383611a1d565b6001600360008473ffffffffffffffffffffffffffffffffffffffff1673ffffffffffffffffffffffffffffffffffffffff1681526020019081526020016000206000828254611daf9190612e34565b92505081905550816002600083815260200190815260200160002060006101000a81548173ffffffffffffffffffffffffffffffffffffffff021916908373ffffffffffffffffffffffffffffffffffffffff160217905550808273ffffffffffffffffffffffffffffffffffffffff16600073ffffffffffffffffffffffffffffffffffffffff167fddf252ad1be2c89b69c2b068fc378daa952ba7f163c4a11628f55a4df523b3ef60405160405180910390a4611e7060008383611a91565b5050565b6040518060c001604052806000815260200160608152602001600060ff168152602001600060ff16815260200160008152602001600081525090565b828054611ebc906127b5565b90600052602060002090601f016020900481019282611ede5760008555611f25565b82601f10611ef757805160ff1916838001178555611f25565b82800160010185558215611f25579182015b82811115611f24578251825591602001919060010190611f09565b5b509050611f329190611f36565b5090565b5b80821115611f4f576000816000905550600101611f37565b5090565b6000604051905090565b600080fd5b600080fd5b60007fffffffff0000000000000000000000000000000000000000000000000000000082169050919050565b611f9c81611f67565b8114611fa757600080fd5b50565b600081359050611fb981611f93565b92915050565b600060208284031215611fd557611fd4611f5d565b5b6000611fe384828501611faa565b91505092915050565b60008115159050919050565b61200181611fec565b82525050565b600060208201905061201c6000830184611ff8565b92915050565b600081519050919050565b600082825260208201905092915050565b60005b8381101561205c578082015181840152602081019050612041565b8381111561206b576000848401525b50505050565b6000601f19601f8301169050919050565b600061208d82612022565b612097818561202d565b93506120a781856020860161203e565b6120b081612071565b840191505092915050565b600060208201905081810360008301526120d58184612082565b905092915050565b6000819050919050565b6120f0816120dd565b81146120fb57600080fd5b50565b60008135905061210d816120e7565b92915050565b60006020828403121561212957612128611f5d565b5b6000612137848285016120fe565b91505092915050565b600073ffffffffffffffffffffffffffffffffffffffff82169050919050565b600061216b82612140565b9050919050565b61217b81612160565b82525050565b60006020820190506121966000830184612172565b92915050565b6121a581612160565b81146121b057600080fd5b50565b6000813590506121c28161219c565b92915050565b600080604083850312156121df576121de611f5d565b5b60006121ed858286016121b3565b92505060206121fe858286016120fe565b9150509250929050565b60008060006060848603121561222157612220611f5d565b5b600061222f868287016121b3565b9350506020612240868287016121b3565b9250506040612251868287016120fe565b9150509250925092565b60006020828403121561227157612270611f5d565b5b600061227f848285016121b3565b91505092915050565b612291816120dd565b82525050565b60006020820190506122ac6000830184612288565b92915050565b600081519050919050565b600082825260208201905092915050565b6000819050602082019050919050565b6122e7816120dd565b82525050565b60006122f983836122de565b60208301905092915050565b6000602082019050919050565b600061231d826122b2565b61232781856122bd565b9350612332836122ce565b8060005b8381101561236357815161234a88826122ed565b975061235583612305565b925050600181019050612336565b5085935050505092915050565b6000602082019050818103600083015261238a8184612312565b905092915050565b61239b81611fec565b81146123a657600080fd5b50565b6000813590506123b881612392565b92915050565b600080604083850312156123d5576123d4611f5d565b5b60006123e3858286016121b3565b92505060206123f4858286016123a9565b9150509250929050565b600080fd5b600080fd5b7f4e487b7100000000000000000000000000000000000000000000000000000000600052604160045260246000fd5b61244082612071565b810181811067ffffffffffffffff8211171561245f5761245e612408565b5b80604052505050565b6000612472611f53565b905061247e8282612437565b919050565b600067ffffffffffffffff82111561249e5761249d612408565b5b6124a782612071565b9050602081019050919050565b82818337600083830152505050565b60006124d66124d184612483565b612468565b9050828152602081018484840111156124f2576124f1612403565b5b6124fd8482856124b4565b509392505050565b600082601f83011261251a576125196123fe565b5b813561252a8482602086016124c3565b91505092915050565b6000806000806080858703121561254d5761254c611f5d565b5b600061255b878288016121b3565b945050602061256c878288016121b3565b935050604061257d878288016120fe565b925050606085013567ffffffffffffffff81111561259e5761259d611f62565b5b6125aa87828801612505565b91505092959194509250565b600082825260208201905092915050565b60006125d282612022565b6125dc81856125b6565b93506125ec81856020860161203e565b6125f581612071565b840191505092915050565b600060ff82169050919050565b61261681612600565b82525050565b600060c08301600083015161263460008601826122de565b506020830151848203602086015261264c82826125c7565b9150506040830151612661604086018261260d565b506060830151612674606086018261260d565b50608083015161268760808601826122de565b5060a083015161269a60a08601826122de565b508091505092915050565b600060208201905081810360008301526126bf818461261c565b905092915050565b600080604083850312156126de576126dd611f5d565b5b60006126ec858286016121b3565b92505060206126fd858286016121b3565b9150509250929050565b61271081612600565b811461271b57600080fd5b50565b60008135905061272d81612707565b92915050565b60008060006060848603121561274c5761274b611f5d565b5b600061275a8682870161271e565b935050602061276b8682870161271e565b925050604061277c868287016120fe565b9150509250925092565b7f4e487b7100000000000000000000000000000000000000000000000000000000600052602260045260246000fd5b600060028204905060018216806127cd57607f821691505b6020821081036127e0576127df612786565b5b50919050565b7f4552433732313a20617070726f76656420717565727920666f72206e6f6e657860008201527f697374656e7420746f6b656e0000000000000000000000000000000000000000602082015250565b6000612842602c8361202d565b915061284d826127e6565b604082019050919050565b6000602082019050818103600083015261287181612835565b9050919050565b7f4552433732313a20617070726f76616c20746f2063757272656e74206f776e6560008201527f7200000000000000000000000000000000000000000000000000000000000000602082015250565b60006128d460218361202d565b91506128df82612878565b604082019050919050565b60006020820190508181036000830152612903816128c7565b9050919050565b7f4552433732313a20617070726f76652063616c6c6572206973206e6f74206f7760008201527f6e6572206e6f7220617070726f76656420666f7220616c6c0000000000000000602082015250565b600061296660388361202d565b91506129718261290a565b604082019050919050565b6000602082019050818103600083015261299581612959565b9050919050565b7f4552433732313a207472616e736665722063616c6c6572206973206e6f74206f60008201527f776e6572206e6f7220617070726f766564000000000000000000000000000000602082015250565b60006129f860318361202d565b9150612a038261299c565b604082019050919050565b60006020820190508181036000830152612a27816129eb565b9050919050565b7f4552433732313a206f776e657220717565727920666f72206e6f6e657869737460008201527f656e7420746f6b656e0000000000000000000000000000000000000000000000602082015250565b6000612a8a60298361202d565b9150612a9582612a2e565b604082019050919050565b60006020820190508181036000830152612ab981612a7d565b9050919050565b7f4552433732313a2062616c616e636520717565727920666f7220746865207a6560008201527f726f206164647265737300000000000000000000000000000000000000000000602082015250565b6000612b1c602a8361202d565b9150612b2782612ac0565b604082019050919050565b60006020820190508181036000830152612b4b81612b0f565b9050919050565b7f4f776e61626c653a2063616c6c6572206973206e6f7420746865206f776e6572600082015250565b6000612b8860208361202d565b9150612b9382612b52565b602082019050919050565b60006020820190508181036000830152612bb781612b7b565b9050919050565b7f4e487b7100000000000000000000000000000000000000000000000000000000600052603260045260246000fd5b7f4e487b7100000000000000000000000000000000000000000000000000000000600052601160045260246000fd5b6000612c27826120dd565b91507fffffffffffffffffffffffffffffffffffffffffffffffffffffffffffffffff8203612c5957612c58612bed565b5b600182019050919050565b7f4552433732314d657461646174613a2055524920717565727920666f72206e6f60008201527f6e6578697374656e7420746f6b656e0000000000000000000000000000000000602082015250565b6000612cc0602f8361202d565b9150612ccb82612c64565b604082019050919050565b60006020820190508181036000830152612cef81612cb3565b9050919050565b600081905092915050565b6000612d0c82612022565b612d168185612cf6565b9350612d2681856020860161203e565b80840191505092915050565b6000612d3e8285612d01565b9150612d4a8284612d01565b91508190509392505050565b7f5065742023000000000000000000000000000000000000000000000000000000815250565b6000612d8782612d56565b600582019150612d978284612d01565b915081905092915050565b7f4f776e61626c653a206e6577206f776e657220697320746865207a65726f206160008201527f6464726573730000000000000000000000000000000000000000000000000000602082015250565b6000612dfe60268361202d565b9150612e0982612da2565b604082019050919050565b60006020820190508181036000830152612e2d81612df1565b9050919050565b6000612e3f826120dd565b9150612e4a836120dd565b9250827fffffffffffffffffffffffffffffffffffffffffffffffffffffffffffffffff03821115612e7f57612e7e612bed565b5b828201905092915050565b7f4552433732313a206f70657261746f7220717565727920666f72206e6f6e657860008201527f697374656e7420746f6b656e0000000000000000000000000000000000000000602082015250565b6000612ee6602c8361202d565b9150612ef182612e8a565b604082019050919050565b60006020820190508181036000830152612f1581612ed9565b9050919050565b7f4552433732313a207472616e736665722066726f6d20696e636f72726563742060008201527f6f776e6572000000000000000000000000000000000000000000000000000000602082015250565b6000612f7860258361202d565b9150612f8382612f1c565b604082019050919050565b60006020820190508181036000830152612fa781612f6b565b9050919050565b7f4552433732313a207472616e7366657220746f20746865207a65726f2061646460008201527f7265737300000000000000000000000000000000000000000000000000000000602082015250565b600061300a60248361202d565b915061301582612fae565b604082019050919050565b6000602082019050818103600083015261303981612ffd565b9050919050565b600061304b826120dd565b9150613056836120dd565b92508282101561306957613068612bed565b5b828203905092915050565b7f4552433732313a20617070726f766520746f2063616c6c657200000000000000600082015250565b60006130aa60198361202d565b91506130b582613074565b602082019050919050565b600060208201905081810360008301526130d98161309d565b9050919050565b7f4552433732313a207472616e7366657220746f206e6f6e20455243373231526560008201527f63656976657220696d706c656d656e7465720000000000000000000000000000602082015250565b600061313c60328361202d565b9150613147826130e0565b604082019050919050565b6000602082019050818103600083015261316b8161312f565b9050919050565b7f4e487b7100000000000000000000000000000000000000000000000000000000600052601260045260246000fd5b60006131ac826120dd565b91506131b7836120dd565b9250826131c7576131c6613172565b5b828204905092915050565b60006131dd826120dd565b91506131e8836120dd565b9250826131f8576131f7613172565b5b828206905092915050565b600081519050919050565b600082825260208201905092915050565b600061322a82613203565b613234818561320e565b935061324481856020860161203e565b61324d81612071565b840191505092915050565b600060808201905061326d6000830187612172565b61327a6020830186612172565b6132876040830185612288565b8181036060830152613299818461321f565b905095945050505050565b6000815190506132b381611f93565b92915050565b6000602082840312156132cf576132ce611f5d565b5b60006132dd848285016132a4565b91505092915050565b7f4552433732313a206d696e7420746f20746865207a65726f2061646472657373600082015250565b600061331c60208361202d565b9150613327826132e6565b602082019050919050565b6000602082019050818103600083015261334b8161330f565b9050919050565b7f4552433732313a20746f6b656e20616c7265616479206d696e74656400000000600082015250565b6000613388601c8361202d565b915061339382613352565b602082019050919050565b600060208201905081810360008301526133b78161337b565b905091905056fea26469706673582212205d2bfafb91307e8da9baf88c067cc931f96c6ef4f730616b3ec4124bcf263c3c64736f6c634300080d0033",
  "immutableReferences": {},
  "source": "// SPDX-License-Identifier: UNLICENSED\npragma solidity 0.8.13;\n\nimport \"../node_modules/@openzeppelin/contracts/token/ERC721/ERC721.sol\";\nimport \"../node_modules/@openzeppelin/contracts/access/Ownable.sol\";\nimport \"../node_modules/@openzeppelin/contracts/utils/Strings.sol\";\n\ncontract Token is ERC721, Ownable {\n    struct Pet {\n        uint256 id;\n        string name;\n        uint8 damage;\n        uint8 magic;\n        uint256 lastMeal;\n        uint256 endurance; // how long this pet survives after lastMeal. eg) 24hrs\n        // Some other properties\n    }\n\n    uint256 nextId = 0;\n    mapping(uint256 => Pet) private _tokenDetails;\n\n    constructor(string memory name, string memory symbol)\n        ERC721(name, symbol)\n    {}\n\n    function mint(\n        uint8 _damage,\n        uint8 _magic,\n        uint256 _endurance\n    ) public onlyOwner {\n        _tokenDetails[nextId] = Pet(\n            nextId,\n            string.concat(\"Pet #\", Strings.toString(nextId)),\n            _damage,\n            _magic,\n            block.timestamp,\n            _endurance\n        );\n        _safeMint(msg.sender, nextId);\n        nextId++;\n    }\n\n    function feed(uint256 _tokenId) public {\n        Pet storage pet = _tokenDetails[_tokenId];\n        // Check if feeding within endurance since last meal\n        require(pet.lastMeal + pet.endurance > block.timestamp);\n        _tokenDetails[_tokenId].lastMeal = block.timestamp;\n    }\n\n    function _beforeTokenTransfer(\n        address from,\n        address to,\n        uint256 tokenId\n    ) internal view override {\n        Pet storage pet = _tokenDetails[tokenId];\n        require(to != from);\n        // Pet still alive\n        require(pet.lastMeal + pet.endurance > block.timestamp);\n    }\n\n    function getTokenDetails(uint256 _tokenId)\n        public\n        view\n        returns (Pet memory)\n    {\n        return _tokenDetails[_tokenId];\n    }\n\n    function getAllTokensForUser(address user)\n        public\n        view\n        returns (uint256[] memory result)\n    {\n        uint256 tokenCount = balanceOf(user);\n        if (tokenCount == 0) {\n            return new uint256[](0);\n        } else {\n            result = new uint256[](tokenCount);\n            uint256 totalPets = nextId;\n            uint256 resultIndex = 0;\n            for (uint256 i = 0; i < totalPets; i++) {\n                if (ownerOf(i) == user) {\n                    result[resultIndex] = i;\n                }\n            }\n            return result;\n        }\n    }\n}\n",
  "sourcePath": "/Users/masafumi/Documents/dApps-samples/nft-game/contracts/Token.sol",
  "compiler": {
    "name": "solc",
    "version": "0.8.13+commit.abaa5c0e.Emscripten.clang"
  },
  "schemaVersion": "3.4.7",
  "updatedAt": "2022-05-23T00:43:55.933Z",
  "networkType": "ethereum",
  "devdoc": {
    "kind": "dev",
    "methods": {
      "approve(address,uint256)": {
        "details": "See {IERC721-approve}."
      },
      "balanceOf(address)": {
        "details": "See {IERC721-balanceOf}."
      },
      "getApproved(uint256)": {
        "details": "See {IERC721-getApproved}."
      },
      "isApprovedForAll(address,address)": {
        "details": "See {IERC721-isApprovedForAll}."
      },
      "name()": {
        "details": "See {IERC721Metadata-name}."
      },
      "owner()": {
        "details": "Returns the address of the current owner."
      },
      "ownerOf(uint256)": {
        "details": "See {IERC721-ownerOf}."
      },
      "renounceOwnership()": {
        "details": "Leaves the contract without owner. It will not be possible to call `onlyOwner` functions anymore. Can only be called by the current owner. NOTE: Renouncing ownership will leave the contract without an owner, thereby removing any functionality that is only available to the owner."
      },
      "safeTransferFrom(address,address,uint256)": {
        "details": "See {IERC721-safeTransferFrom}."
      },
      "safeTransferFrom(address,address,uint256,bytes)": {
        "details": "See {IERC721-safeTransferFrom}."
      },
      "setApprovalForAll(address,bool)": {
        "details": "See {IERC721-setApprovalForAll}."
      },
      "supportsInterface(bytes4)": {
        "details": "See {IERC165-supportsInterface}."
      },
      "symbol()": {
        "details": "See {IERC721Metadata-symbol}."
      },
      "tokenURI(uint256)": {
        "details": "See {IERC721Metadata-tokenURI}."
      },
      "transferFrom(address,address,uint256)": {
        "details": "See {IERC721-transferFrom}."
      },
      "transferOwnership(address)": {
        "details": "Transfers ownership of the contract to a new account (`newOwner`). Can only be called by the current owner."
      }
    },
    "version": 1
  },
  "userdoc": {
    "kind": "user",
    "methods": {},
    "version": 1
  }
}