{
  "contractName": "Token",
  "abi": [
    {
      "inputs": [
        {
          "internalType": "string",
          "name": "name",
          "type": "string"
        },
        {
          "internalType": "string",
          "name": "symbol",
          "type": "string"
        }
      ],
      "stateMutability": "nonpayable",
      "type": "constructor"
    },
    {
      "anonymous": false,
      "inputs": [
        {
          "indexed": true,
          "internalType": "address",
          "name": "owner",
          "type": "address"
        },
        {
          "indexed": true,
          "internalType": "address",
          "name": "approved",
          "type": "address"
        },
        {
          "indexed": true,
          "internalType": "uint256",
          "name": "tokenId",
          "type": "uint256"
        }
      ],
      "name": "Approval",
      "type": "event"
    },
    {
      "anonymous": false,
      "inputs": [
        {
          "indexed": true,
          "internalType": "address",
          "name": "owner",
          "type": "address"
        },
        {
          "indexed": true,
          "internalType": "address",
          "name": "operator",
          "type": "address"
        },
        {
          "indexed": false,
          "internalType": "bool",
          "name": "approved",
          "type": "bool"
        }
      ],
      "name": "ApprovalForAll",
      "type": "event"
    },
    {
      "anonymous": false,
      "inputs": [
        {
          "indexed": true,
          "internalType": "address",
          "name": "previousOwner",
          "type": "address"
        },
        {
          "indexed": true,
          "internalType": "address",
          "name": "newOwner",
          "type": "address"
        }
      ],
      "name": "OwnershipTransferred",
      "type": "event"
    },
    {
      "anonymous": false,
      "inputs": [
        {
          "indexed": true,
          "internalType": "address",
          "name": "from",
          "type": "address"
        },
        {
          "indexed": true,
          "internalType": "address",
          "name": "to",
          "type": "address"
        },
        {
          "indexed": true,
          "internalType": "uint256",
          "name": "tokenId",
          "type": "uint256"
        }
      ],
      "name": "Transfer",
      "type": "event"
    },
    {
      "inputs": [
        {
          "internalType": "address",
          "name": "to",
          "type": "address"
        },
        {
          "internalType": "uint256",
          "name": "tokenId",
          "type": "uint256"
        }
      ],
      "name": "approve",
      "outputs": [],
      "stateMutability": "nonpayable",
      "type": "function"
    },
    {
      "inputs": [
        {
          "internalType": "address",
          "name": "owner",
          "type": "address"
        }
      ],
      "name": "balanceOf",
      "outputs": [
        {
          "internalType": "uint256",
          "name": "",
          "type": "uint256"
        }
      ],
      "stateMutability": "view",
      "type": "function",
      "constant": true
    },
    {
      "inputs": [
        {
          "internalType": "uint256",
          "name": "tokenId",
          "type": "uint256"
        }
      ],
      "name": "getApproved",
      "outputs": [
        {
          "internalType": "address",
          "name": "",
          "type": "address"
        }
      ],
      "stateMutability": "view",
      "type": "function",
      "constant": true
    },
    {
      "inputs": [
        {
          "internalType": "address",
          "name": "owner",
          "type": "address"
        },
        {
          "internalType": "address",
          "name": "operator",
          "type": "address"
        }
      ],
      "name": "isApprovedForAll",
      "outputs": [
        {
          "internalType": "bool",
          "name": "",
          "type": "bool"
        }
      ],
      "stateMutability": "view",
      "type": "function",
      "constant": true
    },
    {
      "inputs": [],
      "name": "name",
      "outputs": [
        {
          "internalType": "string",
          "name": "",
          "type": "string"
        }
      ],
      "stateMutability": "view",
      "type": "function",
      "constant": true
    },
    {
      "inputs": [],
      "name": "owner",
      "outputs": [
        {
          "internalType": "address",
          "name": "",
          "type": "address"
        }
      ],
      "stateMutability": "view",
      "type": "function",
      "constant": true
    },
    {
      "inputs": [
        {
          "internalType": "uint256",
          "name": "tokenId",
          "type": "uint256"
        }
      ],
      "name": "ownerOf",
      "outputs": [
        {
          "internalType": "address",
          "name": "",
          "type": "address"
        }
      ],
      "stateMutability": "view",
      "type": "function",
      "constant": true
    },
    {
      "inputs": [],
      "name": "renounceOwnership",
      "outputs": [],
      "stateMutability": "nonpayable",
      "type": "function"
    },
    {
      "inputs": [
        {
          "internalType": "address",
          "name": "from",
          "type": "address"
        },
        {
          "internalType": "address",
          "name": "to",
          "type": "address"
        },
        {
          "internalType": "uint256",
          "name": "tokenId",
          "type": "uint256"
        }
      ],
      "name": "safeTransferFrom",
      "outputs": [],
      "stateMutability": "nonpayable",
      "type": "function"
    },
    {
      "inputs": [
        {
          "internalType": "address",
          "name": "from",
          "type": "address"
        },
        {
          "internalType": "address",
          "name": "to",
          "type": "address"
        },
        {
          "internalType": "uint256",
          "name": "tokenId",
          "type": "uint256"
        },
        {
          "internalType": "bytes",
          "name": "_data",
          "type": "bytes"
        }
      ],
      "name": "safeTransferFrom",
      "outputs": [],
      "stateMutability": "nonpayable",
      "type": "function"
    },
    {
      "inputs": [
        {
          "internalType": "address",
          "name": "operator",
          "type": "address"
        },
        {
          "internalType": "bool",
          "name": "approved",
          "type": "bool"
        }
      ],
      "name": "setApprovalForAll",
      "outputs": [],
      "stateMutability": "nonpayable",
      "type": "function"
    },
    {
      "inputs": [
        {
          "internalType": "bytes4",
          "name": "interfaceId",
          "type": "bytes4"
        }
      ],
      "name": "supportsInterface",
      "outputs": [
        {
          "internalType": "bool",
          "name": "",
          "type": "bool"
        }
      ],
      "stateMutability": "view",
      "type": "function",
      "constant": true
    },
    {
      "inputs": [],
      "name": "symbol",
      "outputs": [
        {
          "internalType": "string",
          "name": "",
          "type": "string"
        }
      ],
      "stateMutability": "view",
      "type": "function",
      "constant": true
    },
    {
      "inputs": [
        {
          "internalType": "uint256",
          "name": "tokenId",
          "type": "uint256"
        }
      ],
      "name": "tokenURI",
      "outputs": [
        {
          "internalType": "string",
          "name": "",
          "type": "string"
        }
      ],
      "stateMutability": "view",
      "type": "function",
      "constant": true
    },
    {
      "inputs": [
        {
          "internalType": "address",
          "name": "from",
          "type": "address"
        },
        {
          "internalType": "address",
          "name": "to",
          "type": "address"
        },
        {
          "internalType": "uint256",
          "name": "tokenId",
          "type": "uint256"
        }
      ],
      "name": "transferFrom",
      "outputs": [],
      "stateMutability": "nonpayable",
      "type": "function"
    },
    {
      "inputs": [
        {
          "internalType": "address",
          "name": "newOwner",
          "type": "address"
        }
      ],
      "name": "transferOwnership",
      "outputs": [],
      "stateMutability": "nonpayable",
      "type": "function"
    },
    {
      "inputs": [
        {
          "internalType": "uint8",
          "name": "_damage",
          "type": "uint8"
        },
        {
          "internalType": "uint8",
          "name": "_magic",
          "type": "uint8"
        },
        {
          "internalType": "uint256",
          "name": "_endurance",
          "type": "uint256"
        }
      ],
      "name": "mint",
      "outputs": [],
      "stateMutability": "nonpayable",
      "type": "function"
    },
    {
      "inputs": [
        {
          "internalType": "uint256",
          "name": "_tokenId",
          "type": "uint256"
        }
      ],
      "name": "feed",
      "outputs": [],
      "stateMutability": "nonpayable",
      "type": "function"
    },
    {
      "inputs": [
        {
          "internalType": "uint256",
          "name": "_tokenId",
          "type": "uint256"
        }
      ],
      "name": "getTokenDetails",
      "outputs": [
        {
          "components": [
            {
              "internalType": "uint256",
              "name": "id",
              "type": "uint256"
            },
            {
              "internalType": "uint8",
              "name": "damage",
              "type": "uint8"
            },
            {
              "internalType": "uint8",
              "name": "magic",
              "type": "uint8"
            },
            {
              "internalType": "uint256",
              "name": "lastMeal",
              "type": "uint256"
            },
            {
              "internalType": "uint256",
              "name": "endurance",
              "type": "uint256"
            }
          ],
          "internalType": "struct Token.Pet",
          "name": "",
          "type": "tuple"
        }
      ],
      "stateMutability": "view",
      "type": "function",
      "constant": true
    }
  ],
  "bytecode": "0x608060405260006007553480156200001657600080fd5b50604051620034103803806200341083398181016040528101906200003c9190620003b5565b818181600090805190602001906200005692919062000168565b5080600190805190602001906200006f92919062000168565b50505062000092620000866200009a60201b60201c565b620000a260201b60201c565b50506200049e565b600033905090565b6000600660009054906101000a900473ffffffffffffffffffffffffffffffffffffffff16905081600660006101000a81548173ffffffffffffffffffffffffffffffffffffffff021916908373ffffffffffffffffffffffffffffffffffffffff1602179055508173ffffffffffffffffffffffffffffffffffffffff168173ffffffffffffffffffffffffffffffffffffffff167f8be0079c531659141344cd1fd0a4f28419497f9722a3daafe3b4186f6b6457e060405160405180910390a35050565b828054620001769062000469565b90600052602060002090601f0160209004810192826200019a5760008555620001e6565b82601f10620001b557805160ff1916838001178555620001e6565b82800160010185558215620001e6579182015b82811115620001e5578251825591602001919060010190620001c8565b5b509050620001f59190620001f9565b5090565b5b8082111562000214576000816000905550600101620001fa565b5090565b6000604051905090565b600080fd5b600080fd5b600080fd5b600080fd5b6000601f19601f8301169050919050565b7f4e487b7100000000000000000000000000000000000000000000000000000000600052604160045260246000fd5b620002818262000236565b810181811067ffffffffffffffff82111715620002a357620002a262000247565b5b80604052505050565b6000620002b862000218565b9050620002c6828262000276565b919050565b600067ffffffffffffffff821115620002e957620002e862000247565b5b620002f48262000236565b9050602081019050919050565b60005b838110156200032157808201518184015260208101905062000304565b8381111562000331576000848401525b50505050565b60006200034e6200034884620002cb565b620002ac565b9050828152602081018484840111156200036d576200036c62000231565b5b6200037a84828562000301565b509392505050565b600082601f8301126200039a57620003996200022c565b5b8151620003ac84826020860162000337565b91505092915050565b60008060408385031215620003cf57620003ce62000222565b5b600083015167ffffffffffffffff811115620003f057620003ef62000227565b5b620003fe8582860162000382565b925050602083015167ffffffffffffffff81111562000422576200042162000227565b5b620004308582860162000382565b9150509250929050565b7f4e487b7100000000000000000000000000000000000000000000000000000000600052602260045260246000fd5b600060028204905060018216806200048257607f821691505b6020821081036200049857620004976200043a565b5b50919050565b612f6280620004ae6000396000f3fe608060405234801561001057600080fd5b50600436106101215760003560e01c80638da5cb5b116100ad578063c87b56dd11610071578063c87b56dd14610306578063e985e9c514610336578063eb22ed3214610366578063f2fde38b14610382578063f59dfdfb1461039e57610121565b80638da5cb5b1461026257806395d89b4114610280578063a22cb4651461029e578063b88d4fde146102ba578063c1e03728146102d657610121565b806323b872dd116100f457806323b872dd146101c057806342842e0e146101dc5780636352211e146101f857806370a0823114610228578063715018a61461025857610121565b806301ffc9a71461012657806306fdde0314610156578063081812fc14610174578063095ea7b3146101a4575b600080fd5b610140600480360381019061013b9190611cbc565b6103ba565b60405161014d9190611d04565b60405180910390f35b61015e61049c565b60405161016b9190611db8565b60405180910390f35b61018e60048036038101906101899190611e10565b61052e565b60405161019b9190611e7e565b60405180910390f35b6101be60048036038101906101b99190611ec5565b6105b3565b005b6101da60048036038101906101d59190611f05565b6106ca565b005b6101f660048036038101906101f19190611f05565b61072a565b005b610212600480360381019061020d9190611e10565b61074a565b60405161021f9190611e7e565b60405180910390f35b610242600480360381019061023d9190611f58565b6107fb565b60405161024f9190611f94565b60405180910390f35b6102606108b2565b005b61026a61093a565b6040516102779190611e7e565b60405180910390f35b610288610964565b6040516102959190611db8565b60405180910390f35b6102b860048036038101906102b39190611fdb565b6109f6565b005b6102d460048036038101906102cf9190612150565b610a0c565b005b6102f060048036038101906102eb9190611e10565b610a6e565b6040516102fd9190612266565b60405180910390f35b610320600480360381019061031b9190611e10565b610af3565b60405161032d9190611db8565b60405180910390f35b610350600480360381019061034b9190612281565b610b9a565b60405161035d9190611d04565b60405180910390f35b610380600480360381019061037b91906122ed565b610c2e565b005b61039c60048036038101906103979190611f58565b610d7a565b005b6103b860048036038101906103b39190611e10565b610e71565b005b60007f80ac58cd000000000000000000000000000000000000000000000000000000007bffffffffffffffffffffffffffffffffffffffffffffffffffffffff1916827bffffffffffffffffffffffffffffffffffffffffffffffffffffffff1916148061048557507f5b5e139f000000000000000000000000000000000000000000000000000000007bffffffffffffffffffffffffffffffffffffffffffffffffffffffff1916827bffffffffffffffffffffffffffffffffffffffffffffffffffffffff1916145b80610495575061049482610ec6565b5b9050919050565b6060600080546104ab9061236f565b80601f01602080910402602001604051908101604052809291908181526020018280546104d79061236f565b80156105245780601f106104f957610100808354040283529160200191610524565b820191906000526020600020905b81548152906001019060200180831161050757829003601f168201915b5050505050905090565b600061053982610f30565b610578576040517f08c379a000000000000000000000000000000000000000000000000000000000815260040161056f90612412565b60405180910390fd5b6004600083815260200190815260200160002060009054906101000a900473ffffffffffffffffffffffffffffffffffffffff169050919050565b60006105be8261074a565b90508073ffffffffffffffffffffffffffffffffffffffff168373ffffffffffffffffffffffffffffffffffffffff160361062e576040517f08c379a0000000000000000000000000000000000000000000000000000000008152600401610625906124a4565b60405180910390fd5b8073ffffffffffffffffffffffffffffffffffffffff1661064d610f9c565b73ffffffffffffffffffffffffffffffffffffffff16148061067c575061067b81610676610f9c565b610b9a565b5b6106bb576040517f08c379a00000000000000000000000000000000000000000000000000000000081526004016106b290612536565b60405180910390fd5b6106c58383610fa4565b505050565b6106db6106d5610f9c565b8261105d565b61071a576040517f08c379a0000000000000000000000000000000000000000000000000000000008152600401610711906125c8565b60405180910390fd5b61072583838361113b565b505050565b61074583838360405180602001604052806000815250610a0c565b505050565b6000806002600084815260200190815260200160002060009054906101000a900473ffffffffffffffffffffffffffffffffffffffff169050600073ffffffffffffffffffffffffffffffffffffffff168173ffffffffffffffffffffffffffffffffffffffff16036107f2576040517f08c379a00000000000000000000000000000000000000000000000000000000081526004016107e99061265a565b60405180910390fd5b80915050919050565b60008073ffffffffffffffffffffffffffffffffffffffff168273ffffffffffffffffffffffffffffffffffffffff160361086b576040517f08c379a0000000000000000000000000000000000000000000000000000000008152600401610862906126ec565b60405180910390fd5b600360008373ffffffffffffffffffffffffffffffffffffffff1673ffffffffffffffffffffffffffffffffffffffff168152602001908152602001600020549050919050565b6108ba610f9c565b73ffffffffffffffffffffffffffffffffffffffff166108d861093a565b73ffffffffffffffffffffffffffffffffffffffff161461092e576040517f08c379a000000000000000000000000000000000000000000000000000000000815260040161092590612758565b60405180910390fd5b61093860006113a1565b565b6000600660009054906101000a900473ffffffffffffffffffffffffffffffffffffffff16905090565b6060600180546109739061236f565b80601f016020809104026020016040519081016040528092919081815260200182805461099f9061236f565b80156109ec5780601f106109c1576101008083540402835291602001916109ec565b820191906000526020600020905b8154815290600101906020018083116109cf57829003601f168201915b5050505050905090565b610a08610a01610f9c565b8383611467565b5050565b610a1d610a17610f9c565b8361105d565b610a5c576040517f08c379a0000000000000000000000000000000000000000000000000000000008152600401610a53906125c8565b60405180910390fd5b610a68848484846115d3565b50505050565b610a76611c1b565b600860008381526020019081526020016000206040518060a0016040529081600082015481526020016001820160009054906101000a900460ff1660ff1660ff1681526020016001820160019054906101000a900460ff1660ff1660ff168152602001600282015481526020016003820154815250509050919050565b6060610afe82610f30565b610b3d576040517f08c379a0000000000000000000000000000000000000000000000000000000008152600401610b34906127ea565b60405180910390fd5b6000610b4761162f565b90506000815111610b675760405180602001604052806000815250610b92565b80610b7184611646565b604051602001610b82929190612846565b6040516020818303038152906040525b915050919050565b6000600560008473ffffffffffffffffffffffffffffffffffffffff1673ffffffffffffffffffffffffffffffffffffffff16815260200190815260200160002060008373ffffffffffffffffffffffffffffffffffffffff1673ffffffffffffffffffffffffffffffffffffffff16815260200190815260200160002060009054906101000a900460ff16905092915050565b610c36610f9c565b73ffffffffffffffffffffffffffffffffffffffff16610c5461093a565b73ffffffffffffffffffffffffffffffffffffffff1614610caa576040517f08c379a0000000000000000000000000000000000000000000000000000000008152600401610ca190612758565b60405180910390fd5b6040518060a0016040528060075481526020018460ff1681526020018360ff168152602001428152602001828152506008600060075481526020019081526020016000206000820151816000015560208201518160010160006101000a81548160ff021916908360ff16021790555060408201518160010160016101000a81548160ff021916908360ff1602179055506060820151816002015560808201518160030155905050610d5d336007546117a6565b60076000815480929190610d7090612899565b9190505550505050565b610d82610f9c565b73ffffffffffffffffffffffffffffffffffffffff16610da061093a565b73ffffffffffffffffffffffffffffffffffffffff1614610df6576040517f08c379a0000000000000000000000000000000000000000000000000000000008152600401610ded90612758565b60405180910390fd5b600073ffffffffffffffffffffffffffffffffffffffff168173ffffffffffffffffffffffffffffffffffffffff1603610e65576040517f08c379a0000000000000000000000000000000000000000000000000000000008152600401610e5c90612953565b60405180910390fd5b610e6e816113a1565b50565b60006008600083815260200190815260200160002090504281600301548260020154610e9d9190612973565b11610ea757600080fd5b4260086000848152602001908152602001600020600201819055505050565b60007f01ffc9a7000000000000000000000000000000000000000000000000000000007bffffffffffffffffffffffffffffffffffffffffffffffffffffffff1916827bffffffffffffffffffffffffffffffffffffffffffffffffffffffff1916149050919050565b60008073ffffffffffffffffffffffffffffffffffffffff166002600084815260200190815260200160002060009054906101000a900473ffffffffffffffffffffffffffffffffffffffff1673ffffffffffffffffffffffffffffffffffffffff1614159050919050565b600033905090565b816004600083815260200190815260200160002060006101000a81548173ffffffffffffffffffffffffffffffffffffffff021916908373ffffffffffffffffffffffffffffffffffffffff160217905550808273ffffffffffffffffffffffffffffffffffffffff166110178361074a565b73ffffffffffffffffffffffffffffffffffffffff167f8c5be1e5ebec7d5bd14f71427d1e84f3dd0314c0f7b2291e5b200ac8c7c3b92560405160405180910390a45050565b600061106882610f30565b6110a7576040517f08c379a000000000000000000000000000000000000000000000000000000000815260040161109e90612a3b565b60405180910390fd5b60006110b28361074a565b90508073ffffffffffffffffffffffffffffffffffffffff168473ffffffffffffffffffffffffffffffffffffffff1614806110f457506110f38185610b9a565b5b8061113257508373ffffffffffffffffffffffffffffffffffffffff1661111a8461052e565b73ffffffffffffffffffffffffffffffffffffffff16145b91505092915050565b8273ffffffffffffffffffffffffffffffffffffffff1661115b8261074a565b73ffffffffffffffffffffffffffffffffffffffff16146111b1576040517f08c379a00000000000000000000000000000000000000000000000000000000081526004016111a890612acd565b60405180910390fd5b600073ffffffffffffffffffffffffffffffffffffffff168273ffffffffffffffffffffffffffffffffffffffff1603611220576040517f08c379a000000000000000000000000000000000000000000000000000000000815260040161121790612b5f565b60405180910390fd5b61122b8383836117c4565b611236600082610fa4565b6001600360008573ffffffffffffffffffffffffffffffffffffffff1673ffffffffffffffffffffffffffffffffffffffff16815260200190815260200160002060008282546112869190612b7f565b925050819055506001600360008473ffffffffffffffffffffffffffffffffffffffff1673ffffffffffffffffffffffffffffffffffffffff16815260200190815260200160002060008282546112dd9190612973565b92505081905550816002600083815260200190815260200160002060006101000a81548173ffffffffffffffffffffffffffffffffffffffff021916908373ffffffffffffffffffffffffffffffffffffffff160217905550808273ffffffffffffffffffffffffffffffffffffffff168473ffffffffffffffffffffffffffffffffffffffff167fddf252ad1be2c89b69c2b068fc378daa952ba7f163c4a11628f55a4df523b3ef60405160405180910390a461139c838383611838565b505050565b6000600660009054906101000a900473ffffffffffffffffffffffffffffffffffffffff16905081600660006101000a81548173ffffffffffffffffffffffffffffffffffffffff021916908373ffffffffffffffffffffffffffffffffffffffff1602179055508173ffffffffffffffffffffffffffffffffffffffff168173ffffffffffffffffffffffffffffffffffffffff167f8be0079c531659141344cd1fd0a4f28419497f9722a3daafe3b4186f6b6457e060405160405180910390a35050565b8173ffffffffffffffffffffffffffffffffffffffff168373ffffffffffffffffffffffffffffffffffffffff16036114d5576040517f08c379a00000000000000000000000000000000000000000000000000000000081526004016114cc90612bff565b60405180910390fd5b80600560008573ffffffffffffffffffffffffffffffffffffffff1673ffffffffffffffffffffffffffffffffffffffff16815260200190815260200160002060008473ffffffffffffffffffffffffffffffffffffffff1673ffffffffffffffffffffffffffffffffffffffff16815260200190815260200160002060006101000a81548160ff0219169083151502179055508173ffffffffffffffffffffffffffffffffffffffff168373ffffffffffffffffffffffffffffffffffffffff167f17307eab39ab6107e8899845ad3d59bd9653f200f220920489ca2b5937696c31836040516115c69190611d04565b60405180910390a3505050565b6115de84848461113b565b6115ea8484848461183d565b611629576040517f08c379a000000000000000000000000000000000000000000000000000000000815260040161162090612c91565b60405180910390fd5b50505050565b606060405180602001604052806000815250905090565b60606000820361168d576040518060400160405280600181526020017f300000000000000000000000000000000000000000000000000000000000000081525090506117a1565b600082905060005b600082146116bf5780806116a890612899565b915050600a826116b89190612ce0565b9150611695565b60008167ffffffffffffffff8111156116db576116da612025565b5b6040519080825280601f01601f19166020018201604052801561170d5781602001600182028036833780820191505090505b5090505b6000851461179a576001826117269190612b7f565b9150600a856117359190612d11565b60306117419190612973565b60f81b81838151811061175757611756612d42565b5b60200101907effffffffffffffffffffffffffffffffffffffffffffffffffffffffffffff1916908160001a905350600a856117939190612ce0565b9450611711565b8093505050505b919050565b6117c08282604051806020016040528060008152506119c4565b5050565b60006008600083815260200190815260200160002090508373ffffffffffffffffffffffffffffffffffffffff168373ffffffffffffffffffffffffffffffffffffffff160361181357600080fd5b42816003015482600201546118289190612973565b1161183257600080fd5b50505050565b505050565b600061185e8473ffffffffffffffffffffffffffffffffffffffff16611a1f565b156119b7578373ffffffffffffffffffffffffffffffffffffffff1663150b7a02611887610f9c565b8786866040518563ffffffff1660e01b81526004016118a99493929190612dc6565b6020604051808303816000875af19250505080156118e557506040513d601f19601f820116820180604052508101906118e29190612e27565b60015b611967573d8060008114611915576040519150601f19603f3d011682016040523d82523d6000602084013e61191a565b606091505b50600081510361195f576040517f08c379a000000000000000000000000000000000000000000000000000000000815260040161195690612c91565b60405180910390fd5b805181602001fd5b63150b7a0260e01b7bffffffffffffffffffffffffffffffffffffffffffffffffffffffff1916817bffffffffffffffffffffffffffffffffffffffffffffffffffffffff1916149150506119bc565b600190505b949350505050565b6119ce8383611a42565b6119db600084848461183d565b611a1a576040517f08c379a0000000000000000000000000000000000000000000000000000000008152600401611a1190612c91565b60405180910390fd5b505050565b6000808273ffffffffffffffffffffffffffffffffffffffff163b119050919050565b600073ffffffffffffffffffffffffffffffffffffffff168273ffffffffffffffffffffffffffffffffffffffff1603611ab1576040517f08c379a0000000000000000000000000000000000000000000000000000000008152600401611aa890612ea0565b60405180910390fd5b611aba81610f30565b15611afa576040517f08c379a0000000000000000000000000000000000000000000000000000000008152600401611af190612f0c565b60405180910390fd5b611b06600083836117c4565b6001600360008473ffffffffffffffffffffffffffffffffffffffff1673ffffffffffffffffffffffffffffffffffffffff1681526020019081526020016000206000828254611b569190612973565b92505081905550816002600083815260200190815260200160002060006101000a81548173ffffffffffffffffffffffffffffffffffffffff021916908373ffffffffffffffffffffffffffffffffffffffff160217905550808273ffffffffffffffffffffffffffffffffffffffff16600073ffffffffffffffffffffffffffffffffffffffff167fddf252ad1be2c89b69c2b068fc378daa952ba7f163c4a11628f55a4df523b3ef60405160405180910390a4611c1760008383611838565b5050565b6040518060a0016040528060008152602001600060ff168152602001600060ff16815260200160008152602001600081525090565b6000604051905090565b600080fd5b600080fd5b60007fffffffff0000000000000000000000000000000000000000000000000000000082169050919050565b611c9981611c64565b8114611ca457600080fd5b50565b600081359050611cb681611c90565b92915050565b600060208284031215611cd257611cd1611c5a565b5b6000611ce084828501611ca7565b91505092915050565b60008115159050919050565b611cfe81611ce9565b82525050565b6000602082019050611d196000830184611cf5565b92915050565b600081519050919050565b600082825260208201905092915050565b60005b83811015611d59578082015181840152602081019050611d3e565b83811115611d68576000848401525b50505050565b6000601f19601f8301169050919050565b6000611d8a82611d1f565b611d948185611d2a565b9350611da4818560208601611d3b565b611dad81611d6e565b840191505092915050565b60006020820190508181036000830152611dd28184611d7f565b905092915050565b6000819050919050565b611ded81611dda565b8114611df857600080fd5b50565b600081359050611e0a81611de4565b92915050565b600060208284031215611e2657611e25611c5a565b5b6000611e3484828501611dfb565b91505092915050565b600073ffffffffffffffffffffffffffffffffffffffff82169050919050565b6000611e6882611e3d565b9050919050565b611e7881611e5d565b82525050565b6000602082019050611e936000830184611e6f565b92915050565b611ea281611e5d565b8114611ead57600080fd5b50565b600081359050611ebf81611e99565b92915050565b60008060408385031215611edc57611edb611c5a565b5b6000611eea85828601611eb0565b9250506020611efb85828601611dfb565b9150509250929050565b600080600060608486031215611f1e57611f1d611c5a565b5b6000611f2c86828701611eb0565b9350506020611f3d86828701611eb0565b9250506040611f4e86828701611dfb565b9150509250925092565b600060208284031215611f6e57611f6d611c5a565b5b6000611f7c84828501611eb0565b91505092915050565b611f8e81611dda565b82525050565b6000602082019050611fa96000830184611f85565b92915050565b611fb881611ce9565b8114611fc357600080fd5b50565b600081359050611fd581611faf565b92915050565b60008060408385031215611ff257611ff1611c5a565b5b600061200085828601611eb0565b925050602061201185828601611fc6565b9150509250929050565b600080fd5b600080fd5b7f4e487b7100000000000000000000000000000000000000000000000000000000600052604160045260246000fd5b61205d82611d6e565b810181811067ffffffffffffffff8211171561207c5761207b612025565b5b80604052505050565b600061208f611c50565b905061209b8282612054565b919050565b600067ffffffffffffffff8211156120bb576120ba612025565b5b6120c482611d6e565b9050602081019050919050565b82818337600083830152505050565b60006120f36120ee846120a0565b612085565b90508281526020810184848401111561210f5761210e612020565b5b61211a8482856120d1565b509392505050565b600082601f8301126121375761213661201b565b5b81356121478482602086016120e0565b91505092915050565b6000806000806080858703121561216a57612169611c5a565b5b600061217887828801611eb0565b945050602061218987828801611eb0565b935050604061219a87828801611dfb565b925050606085013567ffffffffffffffff8111156121bb576121ba611c5f565b5b6121c787828801612122565b91505092959194509250565b6121dc81611dda565b82525050565b600060ff82169050919050565b6121f8816121e2565b82525050565b60a08201600082015161221460008501826121d3565b50602082015161222760208501826121ef565b50604082015161223a60408501826121ef565b50606082015161224d60608501826121d3565b50608082015161226060808501826121d3565b50505050565b600060a08201905061227b60008301846121fe565b92915050565b6000806040838503121561229857612297611c5a565b5b60006122a685828601611eb0565b92505060206122b785828601611eb0565b9150509250929050565b6122ca816121e2565b81146122d557600080fd5b50565b6000813590506122e7816122c1565b92915050565b60008060006060848603121561230657612305611c5a565b5b6000612314868287016122d8565b9350506020612325868287016122d8565b925050604061233686828701611dfb565b9150509250925092565b7f4e487b7100000000000000000000000000000000000000000000000000000000600052602260045260246000fd5b6000600282049050600182168061238757607f821691505b60208210810361239a57612399612340565b5b50919050565b7f4552433732313a20617070726f76656420717565727920666f72206e6f6e657860008201527f697374656e7420746f6b656e0000000000000000000000000000000000000000602082015250565b60006123fc602c83611d2a565b9150612407826123a0565b604082019050919050565b6000602082019050818103600083015261242b816123ef565b9050919050565b7f4552433732313a20617070726f76616c20746f2063757272656e74206f776e6560008201527f7200000000000000000000000000000000000000000000000000000000000000602082015250565b600061248e602183611d2a565b915061249982612432565b604082019050919050565b600060208201905081810360008301526124bd81612481565b9050919050565b7f4552433732313a20617070726f76652063616c6c6572206973206e6f74206f7760008201527f6e6572206e6f7220617070726f76656420666f7220616c6c0000000000000000602082015250565b6000612520603883611d2a565b915061252b826124c4565b604082019050919050565b6000602082019050818103600083015261254f81612513565b9050919050565b7f4552433732313a207472616e736665722063616c6c6572206973206e6f74206f60008201527f776e6572206e6f7220617070726f766564000000000000000000000000000000602082015250565b60006125b2603183611d2a565b91506125bd82612556565b604082019050919050565b600060208201905081810360008301526125e1816125a5565b9050919050565b7f4552433732313a206f776e657220717565727920666f72206e6f6e657869737460008201527f656e7420746f6b656e0000000000000000000000000000000000000000000000602082015250565b6000612644602983611d2a565b915061264f826125e8565b604082019050919050565b6000602082019050818103600083015261267381612637565b9050919050565b7f4552433732313a2062616c616e636520717565727920666f7220746865207a6560008201527f726f206164647265737300000000000000000000000000000000000000000000602082015250565b60006126d6602a83611d2a565b91506126e18261267a565b604082019050919050565b60006020820190508181036000830152612705816126c9565b9050919050565b7f4f776e61626c653a2063616c6c6572206973206e6f7420746865206f776e6572600082015250565b6000612742602083611d2a565b915061274d8261270c565b602082019050919050565b6000602082019050818103600083015261277181612735565b9050919050565b7f4552433732314d657461646174613a2055524920717565727920666f72206e6f60008201527f6e6578697374656e7420746f6b656e0000000000000000000000000000000000602082015250565b60006127d4602f83611d2a565b91506127df82612778565b604082019050919050565b60006020820190508181036000830152612803816127c7565b9050919050565b600081905092915050565b600061282082611d1f565b61282a818561280a565b935061283a818560208601611d3b565b80840191505092915050565b60006128528285612815565b915061285e8284612815565b91508190509392505050565b7f4e487b7100000000000000000000000000000000000000000000000000000000600052601160045260246000fd5b60006128a482611dda565b91507fffffffffffffffffffffffffffffffffffffffffffffffffffffffffffffffff82036128d6576128d561286a565b5b600182019050919050565b7f4f776e61626c653a206e6577206f776e657220697320746865207a65726f206160008201527f6464726573730000000000000000000000000000000000000000000000000000602082015250565b600061293d602683611d2a565b9150612948826128e1565b604082019050919050565b6000602082019050818103600083015261296c81612930565b9050919050565b600061297e82611dda565b915061298983611dda565b9250827fffffffffffffffffffffffffffffffffffffffffffffffffffffffffffffffff038211156129be576129bd61286a565b5b828201905092915050565b7f4552433732313a206f70657261746f7220717565727920666f72206e6f6e657860008201527f697374656e7420746f6b656e0000000000000000000000000000000000000000602082015250565b6000612a25602c83611d2a565b9150612a30826129c9565b604082019050919050565b60006020820190508181036000830152612a5481612a18565b9050919050565b7f4552433732313a207472616e736665722066726f6d20696e636f72726563742060008201527f6f776e6572000000000000000000000000000000000000000000000000000000602082015250565b6000612ab7602583611d2a565b9150612ac282612a5b565b604082019050919050565b60006020820190508181036000830152612ae681612aaa565b9050919050565b7f4552433732313a207472616e7366657220746f20746865207a65726f2061646460008201527f7265737300000000000000000000000000000000000000000000000000000000602082015250565b6000612b49602483611d2a565b9150612b5482612aed565b604082019050919050565b60006020820190508181036000830152612b7881612b3c565b9050919050565b6000612b8a82611dda565b9150612b9583611dda565b925082821015612ba857612ba761286a565b5b828203905092915050565b7f4552433732313a20617070726f766520746f2063616c6c657200000000000000600082015250565b6000612be9601983611d2a565b9150612bf482612bb3565b602082019050919050565b60006020820190508181036000830152612c1881612bdc565b9050919050565b7f4552433732313a207472616e7366657220746f206e6f6e20455243373231526560008201527f63656976657220696d706c656d656e7465720000000000000000000000000000602082015250565b6000612c7b603283611d2a565b9150612c8682612c1f565b604082019050919050565b60006020820190508181036000830152612caa81612c6e565b9050919050565b7f4e487b7100000000000000000000000000000000000000000000000000000000600052601260045260246000fd5b6000612ceb82611dda565b9150612cf683611dda565b925082612d0657612d05612cb1565b5b828204905092915050565b6000612d1c82611dda565b9150612d2783611dda565b925082612d3757612d36612cb1565b5b828206905092915050565b7f4e487b7100000000000000000000000000000000000000000000000000000000600052603260045260246000fd5b600081519050919050565b600082825260208201905092915050565b6000612d9882612d71565b612da28185612d7c565b9350612db2818560208601611d3b565b612dbb81611d6e565b840191505092915050565b6000608082019050612ddb6000830187611e6f565b612de86020830186611e6f565b612df56040830185611f85565b8181036060830152612e078184612d8d565b905095945050505050565b600081519050612e2181611c90565b92915050565b600060208284031215612e3d57612e3c611c5a565b5b6000612e4b84828501612e12565b91505092915050565b7f4552433732313a206d696e7420746f20746865207a65726f2061646472657373600082015250565b6000612e8a602083611d2a565b9150612e9582612e54565b602082019050919050565b60006020820190508181036000830152612eb981612e7d565b9050919050565b7f4552433732313a20746f6b656e20616c7265616479206d696e74656400000000600082015250565b6000612ef6601c83611d2a565b9150612f0182612ec0565b602082019050919050565b60006020820190508181036000830152612f2581612ee9565b905091905056fea2646970667358221220f9d2b9ac71f619c564221654f5591ec10360dc0f88e79368d94f47871383ff1864736f6c634300080d0033",
  "immutableReferences": {},
  "source": "// SPDX-License-Identifier: UNLICENSED\npragma solidity 0.8.13;\n\nimport \"../node_modules/@openzeppelin/contracts/token/ERC721/ERC721.sol\";\nimport \"../node_modules/@openzeppelin/contracts/access/Ownable.sol\";\n\ncontract Token is ERC721, Ownable {\n    struct Pet {\n        uint256 id;\n        uint8 damage;\n        uint8 magic;\n        uint256 lastMeal;\n        uint256 endurance; // how long this pet survives after lastMeal. eg) 24hrs\n        // Some other properties\n    }\n\n    uint256 nextId = 0;\n    mapping(uint256 => Pet) private _tokenDetails;\n\n    constructor(string memory name, string memory symbol)\n        ERC721(name, symbol)\n    {}\n\n    function mint(\n        uint8 _damage,\n        uint8 _magic,\n        uint256 _endurance\n    ) public onlyOwner {\n        _tokenDetails[nextId] = Pet(\n            nextId,\n            _damage,\n            _magic,\n            block.timestamp,\n            _endurance\n        );\n        _safeMint(msg.sender, nextId);\n        nextId++;\n    }\n\n    function feed(uint256 _tokenId) public {\n        Pet storage pet = _tokenDetails[_tokenId];\n        // Check if feeding within endurance since last meal\n        require(pet.lastMeal + pet.endurance > block.timestamp);\n        _tokenDetails[_tokenId].lastMeal = block.timestamp;\n    }\n\n    function _beforeTokenTransfer(\n        address from,\n        address to,\n        uint256 tokenId\n    ) internal view override {\n        Pet storage pet = _tokenDetails[tokenId];\n        require(to != from);\n        // Pet still alive\n        require(pet.lastMeal + pet.endurance > block.timestamp);\n    }\n\n    function getTokenDetails(uint256 _tokenId)\n        public\n        view\n        returns (Pet memory)\n    {\n        return _tokenDetails[_tokenId];\n    }\n}\n",
  "sourcePath": "/Users/masafumi/Documents/dApps-samples/nft-game/contracts/Token.sol",
  "compiler": {
    "name": "solc",
    "version": "0.8.13+commit.abaa5c0e.Emscripten.clang"
  },
  "schemaVersion": "3.4.7",
  "updatedAt": "2022-05-22T11:00:33.218Z",
  "networkType": "ethereum",
  "devdoc": {
    "kind": "dev",
    "methods": {
      "approve(address,uint256)": {
        "details": "See {IERC721-approve}."
      },
      "balanceOf(address)": {
        "details": "See {IERC721-balanceOf}."
      },
      "getApproved(uint256)": {
        "details": "See {IERC721-getApproved}."
      },
      "isApprovedForAll(address,address)": {
        "details": "See {IERC721-isApprovedForAll}."
      },
      "name()": {
        "details": "See {IERC721Metadata-name}."
      },
      "owner()": {
        "details": "Returns the address of the current owner."
      },
      "ownerOf(uint256)": {
        "details": "See {IERC721-ownerOf}."
      },
      "renounceOwnership()": {
        "details": "Leaves the contract without owner. It will not be possible to call `onlyOwner` functions anymore. Can only be called by the current owner. NOTE: Renouncing ownership will leave the contract without an owner, thereby removing any functionality that is only available to the owner."
      },
      "safeTransferFrom(address,address,uint256)": {
        "details": "See {IERC721-safeTransferFrom}."
      },
      "safeTransferFrom(address,address,uint256,bytes)": {
        "details": "See {IERC721-safeTransferFrom}."
      },
      "setApprovalForAll(address,bool)": {
        "details": "See {IERC721-setApprovalForAll}."
      },
      "supportsInterface(bytes4)": {
        "details": "See {IERC165-supportsInterface}."
      },
      "symbol()": {
        "details": "See {IERC721Metadata-symbol}."
      },
      "tokenURI(uint256)": {
        "details": "See {IERC721Metadata-tokenURI}."
      },
      "transferFrom(address,address,uint256)": {
        "details": "See {IERC721-transferFrom}."
      },
      "transferOwnership(address)": {
        "details": "Transfers ownership of the contract to a new account (`newOwner`). Can only be called by the current owner."
      }
    },
    "version": 1
  },
  "userdoc": {
    "kind": "user",
    "methods": {},
    "version": 1
  }
}