{
  "contractName": "DecentralBank",
  "abi": [
    {
      "inputs": [
        {
          "internalType": "contract Tether",
          "name": "_tether",
          "type": "address"
        },
        {
          "internalType": "contract Reward",
          "name": "_reward",
          "type": "address"
        }
      ],
      "stateMutability": "nonpayable",
      "type": "constructor"
    },
    {
      "inputs": [
        {
          "internalType": "address",
          "name": "",
          "type": "address"
        }
      ],
      "name": "hasStaked",
      "outputs": [
        {
          "internalType": "bool",
          "name": "",
          "type": "bool"
        }
      ],
      "stateMutability": "view",
      "type": "function",
      "constant": true
    },
    {
      "inputs": [
        {
          "internalType": "address",
          "name": "",
          "type": "address"
        }
      ],
      "name": "isStaking",
      "outputs": [
        {
          "internalType": "bool",
          "name": "",
          "type": "bool"
        }
      ],
      "stateMutability": "view",
      "type": "function",
      "constant": true
    },
    {
      "inputs": [],
      "name": "name",
      "outputs": [
        {
          "internalType": "string",
          "name": "",
          "type": "string"
        }
      ],
      "stateMutability": "view",
      "type": "function",
      "constant": true
    },
    {
      "inputs": [],
      "name": "owner",
      "outputs": [
        {
          "internalType": "address",
          "name": "",
          "type": "address"
        }
      ],
      "stateMutability": "view",
      "type": "function",
      "constant": true
    },
    {
      "inputs": [],
      "name": "reward",
      "outputs": [
        {
          "internalType": "contract Reward",
          "name": "",
          "type": "address"
        }
      ],
      "stateMutability": "view",
      "type": "function",
      "constant": true
    },
    {
      "inputs": [
        {
          "internalType": "uint256",
          "name": "",
          "type": "uint256"
        }
      ],
      "name": "stakers",
      "outputs": [
        {
          "internalType": "address",
          "name": "",
          "type": "address"
        }
      ],
      "stateMutability": "view",
      "type": "function",
      "constant": true
    },
    {
      "inputs": [
        {
          "internalType": "address",
          "name": "",
          "type": "address"
        }
      ],
      "name": "stakingBalance",
      "outputs": [
        {
          "internalType": "uint256",
          "name": "",
          "type": "uint256"
        }
      ],
      "stateMutability": "view",
      "type": "function",
      "constant": true
    },
    {
      "inputs": [],
      "name": "tether",
      "outputs": [
        {
          "internalType": "contract Tether",
          "name": "",
          "type": "address"
        }
      ],
      "stateMutability": "view",
      "type": "function",
      "constant": true
    },
    {
      "inputs": [
        {
          "internalType": "uint256",
          "name": "_amount",
          "type": "uint256"
        }
      ],
      "name": "deposit",
      "outputs": [],
      "stateMutability": "nonpayable",
      "type": "function"
    },
    {
      "inputs": [],
      "name": "issueReward",
      "outputs": [],
      "stateMutability": "nonpayable",
      "type": "function"
    },
    {
      "inputs": [
        {
          "internalType": "uint256",
          "name": "_amount",
          "type": "uint256"
        }
      ],
      "name": "withdraw",
      "outputs": [],
      "stateMutability": "nonpayable",
      "type": "function"
    }
  ],
  "bytecode": "0x60806040526040518060400160405280600e81526020017f446563656e7472616c2042616e6b000000000000000000000000000000000000815250600090805190602001906200005192919062000150565b503480156200005f57600080fd5b5060405162001576380380620015768339818101604052810190620000859190620002c3565b81600260006101000a81548173ffffffffffffffffffffffffffffffffffffffff021916908373ffffffffffffffffffffffffffffffffffffffff16021790555080600360006101000a81548173ffffffffffffffffffffffffffffffffffffffff021916908373ffffffffffffffffffffffffffffffffffffffff16021790555033600160006101000a81548173ffffffffffffffffffffffffffffffffffffffff021916908373ffffffffffffffffffffffffffffffffffffffff16021790555050506200036e565b8280546200015e9062000339565b90600052602060002090601f016020900481019282620001825760008555620001ce565b82601f106200019d57805160ff1916838001178555620001ce565b82800160010185558215620001ce579182015b82811115620001cd578251825591602001919060010190620001b0565b5b509050620001dd9190620001e1565b5090565b5b80821115620001fc576000816000905550600101620001e2565b5090565b600080fd5b600073ffffffffffffffffffffffffffffffffffffffff82169050919050565b6000620002328262000205565b9050919050565b6000620002468262000225565b9050919050565b620002588162000239565b81146200026457600080fd5b50565b60008151905062000278816200024d565b92915050565b60006200028b8262000225565b9050919050565b6200029d816200027e565b8114620002a957600080fd5b50565b600081519050620002bd8162000292565b92915050565b60008060408385031215620002dd57620002dc62000200565b5b6000620002ed8582860162000267565b92505060206200030085828601620002ac565b9150509250929050565b7f4e487b7100000000000000000000000000000000000000000000000000000000600052602260045260246000fd5b600060028204905060018216806200035257607f821691505b6020821081036200036857620003676200030a565b5b50919050565b6111f8806200037e6000396000f3fe608060405234801561001057600080fd5b50600436106100a95760003560e01c80636f49712b116100715780636f49712b146101545780638da5cb5b14610184578063b6b55f25146101a2578063c93c8f34146101be578063f483f33b146101ee578063fd5e6dd1146101f8576100a9565b806306fdde03146100ae578063228cb733146100cc5780632e1a7d4d146100ea57806345bc78ab146101065780635efc071a14610136575b600080fd5b6100b6610228565b6040516100c39190610b0e565b60405180910390f35b6100d46102b6565b6040516100e19190610baf565b60405180910390f35b61010460048036038101906100ff9190610c05565b6102dc565b005b610120600480360381019061011b9190610c70565b6104f8565b60405161012d9190610cac565b60405180910390f35b61013e610510565b60405161014b9190610ce8565b60405180910390f35b61016e60048036038101906101699190610c70565b610536565b60405161017b9190610d1e565b60405180910390f35b61018c610556565b6040516101999190610d48565b60405180910390f35b6101bc60048036038101906101b79190610c05565b61057c565b005b6101d860048036038101906101d39190610c70565b610820565b6040516101e59190610d1e565b60405180910390f35b6101f6610840565b005b610212600480360381019061020d9190610c05565b610a36565b60405161021f9190610d48565b60405180910390f35b6000805461023590610d92565b80601f016020809104026020016040519081016040528092919081815260200182805461026190610d92565b80156102ae5780601f10610283576101008083540402835291602001916102ae565b820191906000526020600020905b81548152906001019060200180831161029157829003601f168201915b505050505081565b600360009054906101000a900473ffffffffffffffffffffffffffffffffffffffff1681565b80600560003373ffffffffffffffffffffffffffffffffffffffff1673ffffffffffffffffffffffffffffffffffffffff16815260200190815260200160002054101561035e576040517f08c379a000000000000000000000000000000000000000000000000000000000815260040161035590610e35565b60405180910390fd5b600260009054906101000a900473ffffffffffffffffffffffffffffffffffffffff1673ffffffffffffffffffffffffffffffffffffffff1663a9059cbb33836040518363ffffffff1660e01b81526004016103bb929190610e55565b6020604051808303816000875af11580156103da573d6000803e3d6000fd5b505050506040513d601f19601f820116820180604052508101906103fe9190610eaa565b5080600560003373ffffffffffffffffffffffffffffffffffffffff1673ffffffffffffffffffffffffffffffffffffffff168152602001908152602001600020600082825461044e9190610f06565b925050819055506000600560003373ffffffffffffffffffffffffffffffffffffffff1673ffffffffffffffffffffffffffffffffffffffff16815260200190815260200160002054036104f5576000600760003373ffffffffffffffffffffffffffffffffffffffff1673ffffffffffffffffffffffffffffffffffffffff16815260200190815260200160002060006101000a81548160ff0219169083151502179055505b50565b60056020528060005260406000206000915090505481565b600260009054906101000a900473ffffffffffffffffffffffffffffffffffffffff1681565b60076020528060005260406000206000915054906101000a900460ff1681565b600160009054906101000a900473ffffffffffffffffffffffffffffffffffffffff1681565b806000106105bf576040517f08c379a00000000000000000000000000000000000000000000000000000000081526004016105b690610fac565b60405180910390fd5b600260009054906101000a900473ffffffffffffffffffffffffffffffffffffffff1673ffffffffffffffffffffffffffffffffffffffff166323b872dd3330846040518463ffffffff1660e01b815260040161061e93929190610fcc565b6020604051808303816000875af115801561063d573d6000803e3d6000fd5b505050506040513d601f19601f820116820180604052508101906106619190610eaa565b5080600560003373ffffffffffffffffffffffffffffffffffffffff1673ffffffffffffffffffffffffffffffffffffffff16815260200190815260200160002060008282546106b19190611003565b92505081905550600660003373ffffffffffffffffffffffffffffffffffffffff1673ffffffffffffffffffffffffffffffffffffffff16815260200190815260200160002060009054906101000a900460ff1661076d576004339080600181540180825580915050600190039060005260206000200160009091909190916101000a81548173ffffffffffffffffffffffffffffffffffffffff021916908373ffffffffffffffffffffffffffffffffffffffff1602179055505b6001600660003373ffffffffffffffffffffffffffffffffffffffff1673ffffffffffffffffffffffffffffffffffffffff16815260200190815260200160002060006101000a81548160ff0219169083151502179055506001600760003373ffffffffffffffffffffffffffffffffffffffff1673ffffffffffffffffffffffffffffffffffffffff16815260200190815260200160002060006101000a81548160ff02191690831515021790555050565b60066020528060005260406000206000915054906101000a900460ff1681565b600160009054906101000a900473ffffffffffffffffffffffffffffffffffffffff1673ffffffffffffffffffffffffffffffffffffffff163373ffffffffffffffffffffffffffffffffffffffff16146108d0576040517f08c379a00000000000000000000000000000000000000000000000000000000081526004016108c7906110cb565b60405180910390fd5b60005b600480549050811015610a33576000600482815481106108f6576108f56110eb565b5b9060005260206000200160009054906101000a900473ffffffffffffffffffffffffffffffffffffffff16905060006009600560008473ffffffffffffffffffffffffffffffffffffffff1673ffffffffffffffffffffffffffffffffffffffff168152602001908152602001600020546109719190611149565b90506000811115610a1e57600360009054906101000a900473ffffffffffffffffffffffffffffffffffffffff1673ffffffffffffffffffffffffffffffffffffffff1663a9059cbb83836040518363ffffffff1660e01b81526004016109d9929190610e55565b6020604051808303816000875af11580156109f8573d6000803e3d6000fd5b505050506040513d601f19601f82011682018060405250810190610a1c9190610eaa565b505b50508080610a2b9061117a565b9150506108d3565b50565b60048181548110610a4657600080fd5b906000526020600020016000915054906101000a900473ffffffffffffffffffffffffffffffffffffffff1681565b600081519050919050565b600082825260208201905092915050565b60005b83811015610aaf578082015181840152602081019050610a94565b83811115610abe576000848401525b50505050565b6000601f19601f8301169050919050565b6000610ae082610a75565b610aea8185610a80565b9350610afa818560208601610a91565b610b0381610ac4565b840191505092915050565b60006020820190508181036000830152610b288184610ad5565b905092915050565b600073ffffffffffffffffffffffffffffffffffffffff82169050919050565b6000819050919050565b6000610b75610b70610b6b84610b30565b610b50565b610b30565b9050919050565b6000610b8782610b5a565b9050919050565b6000610b9982610b7c565b9050919050565b610ba981610b8e565b82525050565b6000602082019050610bc46000830184610ba0565b92915050565b600080fd5b6000819050919050565b610be281610bcf565b8114610bed57600080fd5b50565b600081359050610bff81610bd9565b92915050565b600060208284031215610c1b57610c1a610bca565b5b6000610c2984828501610bf0565b91505092915050565b6000610c3d82610b30565b9050919050565b610c4d81610c32565b8114610c5857600080fd5b50565b600081359050610c6a81610c44565b92915050565b600060208284031215610c8657610c85610bca565b5b6000610c9484828501610c5b565b91505092915050565b610ca681610bcf565b82525050565b6000602082019050610cc16000830184610c9d565b92915050565b6000610cd282610b7c565b9050919050565b610ce281610cc7565b82525050565b6000602082019050610cfd6000830184610cd9565b92915050565b60008115159050919050565b610d1881610d03565b82525050565b6000602082019050610d336000830184610d0f565b92915050565b610d4281610c32565b82525050565b6000602082019050610d5d6000830184610d39565b92915050565b7f4e487b7100000000000000000000000000000000000000000000000000000000600052602260045260246000fd5b60006002820490506001821680610daa57607f821691505b602082108103610dbd57610dbc610d63565b5b50919050565b7f43616e6e6f74207769746864726177206d6f7265207468616e20796f7520737460008201527f616b65642e000000000000000000000000000000000000000000000000000000602082015250565b6000610e1f602583610a80565b9150610e2a82610dc3565b604082019050919050565b60006020820190508181036000830152610e4e81610e12565b9050919050565b6000604082019050610e6a6000830185610d39565b610e776020830184610c9d565b9392505050565b610e8781610d03565b8114610e9257600080fd5b50565b600081519050610ea481610e7e565b92915050565b600060208284031215610ec057610ebf610bca565b5b6000610ece84828501610e95565b91505092915050565b7f4e487b7100000000000000000000000000000000000000000000000000000000600052601160045260246000fd5b6000610f1182610bcf565b9150610f1c83610bcf565b925082821015610f2f57610f2e610ed7565b5b828203905092915050565b7f4465706f7369742068617320746f2062652067726561746572207468616e203060008201527f2e00000000000000000000000000000000000000000000000000000000000000602082015250565b6000610f96602183610a80565b9150610fa182610f3a565b604082019050919050565b60006020820190508181036000830152610fc581610f89565b9050919050565b6000606082019050610fe16000830186610d39565b610fee6020830185610d39565b610ffb6040830184610c9d565b949350505050565b600061100e82610bcf565b915061101983610bcf565b9250827fffffffffffffffffffffffffffffffffffffffffffffffffffffffffffffffff0382111561104e5761104d610ed7565b5b828201905092915050565b7f4f6e6c79206f776e6572206f662074686520636f6e74726163742063616e206360008201527f616c6c2074686973207472616e73616374696f6e000000000000000000000000602082015250565b60006110b5603483610a80565b91506110c082611059565b604082019050919050565b600060208201905081810360008301526110e4816110a8565b9050919050565b7f4e487b7100000000000000000000000000000000000000000000000000000000600052603260045260246000fd5b7f4e487b7100000000000000000000000000000000000000000000000000000000600052601260045260246000fd5b600061115482610bcf565b915061115f83610bcf565b92508261116f5761116e61111a565b5b828204905092915050565b600061118582610bcf565b91507fffffffffffffffffffffffffffffffffffffffffffffffffffffffffffffffff82036111b7576111b6610ed7565b5b60018201905091905056fea2646970667358221220b36f35878be2c032a0cc0823204a4f069f765fd097d3a37aaab1b872d5876e4b64736f6c634300080e0033",
  "immutableReferences": {},
  "source": "// SPDX-License-Identifier: UNLICENSED\npragma solidity ^0.8.0;\n\nimport \"./Tether.sol\";\nimport \"./Reward.sol\";\n\ncontract DecentralBank {\n    string public name = \"Decentral Bank\";\n    address public owner;\n    Tether public tether;\n    Reward public reward;\n\n    address[] public stakers;\n\n    mapping(address => uint256) public stakingBalance;\n    mapping(address => bool) public hasStaked;\n    mapping(address => bool) public isStaking;\n\n    constructor(Tether _tether, Reward _reward) {\n        tether = _tether;\n        reward = _reward;\n        owner = msg.sender;\n    }\n\n    function deposit(uint256 _amount) public {\n        require(0 < _amount, \"Deposit has to be greater than 0.\");\n\n        // Transfer tether tokens to this contract for staking\n        tether.transferFrom(msg.sender, address(this), _amount);\n\n        // update stakig balance\n        stakingBalance[msg.sender] += _amount;\n\n        if (!hasStaked[msg.sender]) {\n            stakers.push(msg.sender);\n        }\n\n        hasStaked[msg.sender] = true;\n        isStaking[msg.sender] = true;\n    }\n\n    function issueReward() public {\n        require(\n            msg.sender == owner,\n            \"Only owner of the contract can call this transaction\"\n        );\n        for (uint256 i = 0; i < stakers.length; i++) {\n            address receipent = stakers[i];\n            uint256 balance = stakingBalance[receipent] / 9; // 9 percent of staking will be given to stakers\n            if (balance > 0) {\n                reward.transfer(receipent, balance);\n            }\n        }\n    }\n\n    function withdraw(uint256 _amount) public {\n        require(\n            stakingBalance[msg.sender] >= _amount,\n            \"Cannot withdraw more than you staked.\"\n        );\n\n        tether.transfer(msg.sender, _amount);\n\n        stakingBalance[msg.sender] -= _amount;\n\n        if (stakingBalance[msg.sender] == 0) {\n            isStaking[msg.sender] = false;\n        }\n    }\n}\n",
  "sourcePath": "/Users/masafumi/Documents/dApps-samples/defi-staking-dapp/src/contracts/DecentralBank.sol",
  "compiler": {
    "name": "solc",
    "version": "0.8.14+commit.80d49f37.Emscripten.clang"
  },
  "schemaVersion": "3.4.7",
  "updatedAt": "2022-06-02T06:04:48.025Z",
  "networkType": "ethereum",
  "devdoc": {
    "kind": "dev",
    "methods": {},
    "version": 1
  },
  "userdoc": {
    "kind": "user",
    "methods": {},
    "version": 1
  }
}