{
  "_format": "hh-sol-artifact-1",
  "contractName": "PoM",
  "sourceName": "contracts/PoM.sol",
  "abi": [
    {
      "anonymous": false,
      "inputs": [
        {
          "indexed": true,
          "internalType": "address",
          "name": "_to",
          "type": "address"
        },
        {
          "indexed": true,
          "internalType": "uint256",
          "name": "_tokenId",
          "type": "uint256"
        }
      ],
      "name": "Attest",
      "type": "event"
    },
    {
      "anonymous": false,
      "inputs": [
        {
          "indexed": true,
          "internalType": "uint256",
          "name": "tokenId",
          "type": "uint256"
        },
        {
          "indexed": true,
          "internalType": "address",
          "name": "to",
          "type": "address"
        }
      ],
      "name": "BurnPoM",
      "type": "event"
    },
    {
      "anonymous": false,
      "inputs": [
        {
          "indexed": true,
          "internalType": "uint256",
          "name": "tokenId",
          "type": "uint256"
        },
        {
          "indexed": true,
          "internalType": "address",
          "name": "to",
          "type": "address"
        }
      ],
      "name": "MintPoM",
      "type": "event"
    },
    {
      "anonymous": false,
      "inputs": [
        {
          "indexed": true,
          "internalType": "uint256",
          "name": "tokenId",
          "type": "uint256"
        },
        {
          "indexed": true,
          "internalType": "address",
          "name": "to",
          "type": "address"
        }
      ],
      "name": "ModifiyPoM",
      "type": "event"
    },
    {
      "anonymous": false,
      "inputs": [
        {
          "indexed": false,
          "internalType": "address",
          "name": "account",
          "type": "address"
        }
      ],
      "name": "Paused",
      "type": "event"
    },
    {
      "anonymous": false,
      "inputs": [
        {
          "indexed": true,
          "internalType": "address",
          "name": "_to",
          "type": "address"
        },
        {
          "indexed": true,
          "internalType": "uint256",
          "name": "_tokenId",
          "type": "uint256"
        }
      ],
      "name": "Revoke",
      "type": "event"
    },
    {
      "anonymous": false,
      "inputs": [
        {
          "indexed": true,
          "internalType": "bytes32",
          "name": "role",
          "type": "bytes32"
        },
        {
          "indexed": true,
          "internalType": "bytes32",
          "name": "previousAdminRole",
          "type": "bytes32"
        },
        {
          "indexed": true,
          "internalType": "bytes32",
          "name": "newAdminRole",
          "type": "bytes32"
        }
      ],
      "name": "RoleAdminChanged",
      "type": "event"
    },
    {
      "anonymous": false,
      "inputs": [
        {
          "indexed": true,
          "internalType": "bytes32",
          "name": "role",
          "type": "bytes32"
        },
        {
          "indexed": true,
          "internalType": "address",
          "name": "account",
          "type": "address"
        },
        {
          "indexed": true,
          "internalType": "address",
          "name": "sender",
          "type": "address"
        }
      ],
      "name": "RoleGranted",
      "type": "event"
    },
    {
      "anonymous": false,
      "inputs": [
        {
          "indexed": true,
          "internalType": "bytes32",
          "name": "role",
          "type": "bytes32"
        },
        {
          "indexed": true,
          "internalType": "address",
          "name": "account",
          "type": "address"
        },
        {
          "indexed": true,
          "internalType": "address",
          "name": "sender",
          "type": "address"
        }
      ],
      "name": "RoleRevoked",
      "type": "event"
    },
    {
      "anonymous": false,
      "inputs": [
        {
          "indexed": false,
          "internalType": "address",
          "name": "account",
          "type": "address"
        }
      ],
      "name": "Unpaused",
      "type": "event"
    },
    {
      "inputs": [],
      "name": "DEFAULT_ADMIN_ROLE",
      "outputs": [
        {
          "internalType": "bytes32",
          "name": "",
          "type": "bytes32"
        }
      ],
      "stateMutability": "view",
      "type": "function"
    },
    {
      "inputs": [
        {
          "internalType": "bytes32",
          "name": "proofId",
          "type": "bytes32"
        },
        {
          "internalType": "string",
          "name": "review",
          "type": "string"
        }
      ],
      "name": "addReview",
      "outputs": [],
      "stateMutability": "nonpayable",
      "type": "function"
    },
    {
      "inputs": [
        {
          "internalType": "address",
          "name": "owner",
          "type": "address"
        }
      ],
      "name": "balanceOf",
      "outputs": [
        {
          "internalType": "uint256",
          "name": "",
          "type": "uint256"
        }
      ],
      "stateMutability": "view",
      "type": "function"
    },
    {
      "inputs": [
        {
          "internalType": "uint256",
          "name": "tokenId",
          "type": "uint256"
        }
      ],
      "name": "burn",
      "outputs": [],
      "stateMutability": "view",
      "type": "function"
    },
    {
      "inputs": [
        {
          "internalType": "bytes32",
          "name": "proofId",
          "type": "bytes32"
        }
      ],
      "name": "burnToken",
      "outputs": [],
      "stateMutability": "nonpayable",
      "type": "function"
    },
    {
      "inputs": [],
      "name": "getAgreementContractAddress",
      "outputs": [
        {
          "internalType": "address",
          "name": "",
          "type": "address"
        }
      ],
      "stateMutability": "view",
      "type": "function"
    },
    {
      "inputs": [
        {
          "internalType": "address",
          "name": "holder",
          "type": "address"
        }
      ],
      "name": "getAllTokenIds",
      "outputs": [
        {
          "internalType": "uint256[]",
          "name": "",
          "type": "uint256[]"
        }
      ],
      "stateMutability": "view",
      "type": "function"
    },
    {
      "inputs": [
        {
          "internalType": "uint256",
          "name": "tokenId",
          "type": "uint256"
        }
      ],
      "name": "getProofDetail",
      "outputs": [
        {
          "components": [
            {
              "internalType": "address",
              "name": "founder",
              "type": "address"
            },
            {
              "internalType": "uint32",
              "name": "startTime",
              "type": "uint32"
            },
            {
              "internalType": "uint32",
              "name": "endTime",
              "type": "uint32"
            },
            {
              "internalType": "bytes22",
              "name": "daoName",
              "type": "bytes22"
            },
            {
              "internalType": "uint256",
              "name": "rewardAmount",
              "type": "uint256"
            },
            {
              "internalType": "string",
              "name": "review",
              "type": "string"
            }
          ],
          "internalType": "struct SharedStructs.Proof",
          "name": "",
          "type": "tuple"
        }
      ],
      "stateMutability": "view",
      "type": "function"
    },
    {
      "inputs": [
        {
          "internalType": "bytes32",
          "name": "role",
          "type": "bytes32"
        }
      ],
      "name": "getRoleAdmin",
      "outputs": [
        {
          "internalType": "bytes32",
          "name": "",
          "type": "bytes32"
        }
      ],
      "stateMutability": "view",
      "type": "function"
    },
    {
      "inputs": [
        {
          "internalType": "bytes32",
          "name": "role",
          "type": "bytes32"
        },
        {
          "internalType": "address",
          "name": "account",
          "type": "address"
        }
      ],
      "name": "grantRole",
      "outputs": [],
      "stateMutability": "nonpayable",
      "type": "function"
    },
    {
      "inputs": [
        {
          "internalType": "bytes32",
          "name": "role",
          "type": "bytes32"
        },
        {
          "internalType": "address",
          "name": "account",
          "type": "address"
        }
      ],
      "name": "hasRole",
      "outputs": [
        {
          "internalType": "bool",
          "name": "",
          "type": "bool"
        }
      ],
      "stateMutability": "view",
      "type": "function"
    },
    {
      "inputs": [
        {
          "internalType": "string",
          "name": "_name",
          "type": "string"
        },
        {
          "internalType": "string",
          "name": "_symbol",
          "type": "string"
        },
        {
          "internalType": "string",
          "name": "_baseURI",
          "type": "string"
        }
      ],
      "name": "initialize",
      "outputs": [],
      "stateMutability": "nonpayable",
      "type": "function"
    },
    {
      "inputs": [
        {
          "internalType": "address",
          "name": "to",
          "type": "address"
        },
        {
          "components": [
            {
              "internalType": "bytes32",
              "name": "id",
              "type": "bytes32"
            },
            {
              "internalType": "bytes22",
              "name": "daoName",
              "type": "bytes22"
            },
            {
              "internalType": "uint32",
              "name": "startTime",
              "type": "uint32"
            },
            {
              "internalType": "uint32",
              "name": "endTime",
              "type": "uint32"
            },
            {
              "internalType": "bool",
              "name": "isCompleted",
              "type": "bool"
            },
            {
              "internalType": "uint256",
              "name": "rewardAmount",
              "type": "uint256"
            },
            {
              "internalType": "address",
              "name": "founder",
              "type": "address"
            },
            {
              "internalType": "address",
              "name": "moderator",
              "type": "address"
            }
          ],
          "internalType": "struct SharedStructs.Agreement",
          "name": "agreement",
          "type": "tuple"
        }
      ],
      "name": "mintToken",
      "outputs": [],
      "stateMutability": "nonpayable",
      "type": "function"
    },
    {
      "inputs": [],
      "name": "name",
      "outputs": [
        {
          "internalType": "string",
          "name": "",
          "type": "string"
        }
      ],
      "stateMutability": "view",
      "type": "function"
    },
    {
      "inputs": [
        {
          "internalType": "uint256",
          "name": "tokenId",
          "type": "uint256"
        }
      ],
      "name": "ownerOf",
      "outputs": [
        {
          "internalType": "address",
          "name": "",
          "type": "address"
        }
      ],
      "stateMutability": "view",
      "type": "function"
    },
    {
      "inputs": [],
      "name": "pause",
      "outputs": [],
      "stateMutability": "nonpayable",
      "type": "function"
    },
    {
      "inputs": [],
      "name": "paused",
      "outputs": [
        {
          "internalType": "bool",
          "name": "",
          "type": "bool"
        }
      ],
      "stateMutability": "view",
      "type": "function"
    },
    {
      "inputs": [
        {
          "internalType": "bytes32",
          "name": "role",
          "type": "bytes32"
        },
        {
          "internalType": "address",
          "name": "account",
          "type": "address"
        }
      ],
      "name": "renounceRole",
      "outputs": [],
      "stateMutability": "nonpayable",
      "type": "function"
    },
    {
      "inputs": [
        {
          "internalType": "bytes32",
          "name": "role",
          "type": "bytes32"
        },
        {
          "internalType": "address",
          "name": "account",
          "type": "address"
        }
      ],
      "name": "revokeRole",
      "outputs": [],
      "stateMutability": "nonpayable",
      "type": "function"
    },
    {
      "inputs": [
        {
          "internalType": "address",
          "name": "contractAddr",
          "type": "address"
        }
      ],
      "name": "setAgreementContractAddress",
      "outputs": [],
      "stateMutability": "nonpayable",
      "type": "function"
    },
    {
      "inputs": [
        {
          "internalType": "string",
          "name": "baseURI",
          "type": "string"
        }
      ],
      "name": "setBaseURI",
      "outputs": [],
      "stateMutability": "nonpayable",
      "type": "function"
    },
    {
      "inputs": [
        {
          "internalType": "bytes4",
          "name": "interfaceId",
          "type": "bytes4"
        }
      ],
      "name": "supportsInterface",
      "outputs": [
        {
          "internalType": "bool",
          "name": "",
          "type": "bool"
        }
      ],
      "stateMutability": "view",
      "type": "function"
    },
    {
      "inputs": [],
      "name": "symbol",
      "outputs": [
        {
          "internalType": "string",
          "name": "",
          "type": "string"
        }
      ],
      "stateMutability": "view",
      "type": "function"
    },
    {
      "inputs": [
        {
          "internalType": "bytes32",
          "name": "proofId",
          "type": "bytes32"
        }
      ],
      "name": "tokenID",
      "outputs": [
        {
          "internalType": "uint256",
          "name": "",
          "type": "uint256"
        }
      ],
      "stateMutability": "view",
      "type": "function"
    },
    {
      "inputs": [
        {
          "internalType": "uint256",
          "name": "tokenId",
          "type": "uint256"
        }
      ],
      "name": "tokenURI",
      "outputs": [
        {
          "internalType": "string",
          "name": "",
          "type": "string"
        }
      ],
      "stateMutability": "view",
      "type": "function"
    },
    {
      "inputs": [],
      "name": "totalSupply",
      "outputs": [
        {
          "internalType": "uint256",
          "name": "",
          "type": "uint256"
        }
      ],
      "stateMutability": "view",
      "type": "function"
    },
    {
      "inputs": [],
      "name": "unpause",
      "outputs": [],
      "stateMutability": "nonpayable",
      "type": "function"
    },
    {
      "inputs": [
        {
          "components": [
            {
              "internalType": "bytes32",
              "name": "id",
              "type": "bytes32"
            },
            {
              "internalType": "bytes22",
              "name": "daoName",
              "type": "bytes22"
            },
            {
              "internalType": "uint32",
              "name": "startTime",
              "type": "uint32"
            },
            {
              "internalType": "uint32",
              "name": "endTime",
              "type": "uint32"
            },
            {
              "internalType": "bool",
              "name": "isCompleted",
              "type": "bool"
            },
            {
              "internalType": "uint256",
              "name": "rewardAmount",
              "type": "uint256"
            },
            {
              "internalType": "address",
              "name": "founder",
              "type": "address"
            },
            {
              "internalType": "address",
              "name": "moderator",
              "type": "address"
            }
          ],
          "internalType": "struct SharedStructs.Agreement",
          "name": "agreement",
          "type": "tuple"
        }
      ],
      "name": "updateProof",
      "outputs": [],
      "stateMutability": "nonpayable",
      "type": "function"
    }
  ],
  "bytecode": "0x608060405234801561001057600080fd5b50612881806100206000396000f3fe608060405234801561001057600080fd5b50600436106101c45760003560e01c80635c975abb116100f9578063a217fddf11610097578063b4e80faf11610071578063b4e80faf146103bb578063c87b56dd146103cd578063d0a3b0c8146103e0578063d547741f146103f357600080fd5b8063a217fddf1461038d578063a4cbac5014610395578063a6487c53146103a857600080fd5b80638456cb59116100d35780638456cb591461035757806391551e0e1461035f57806391d148541461037257806395d89b411461038557600080fd5b80635c975abb1461030e5780636352211e1461031957806370a082311461034457600080fd5b8063248a9ca3116101665780633f4ba83a116101405780633f4ba83a146102c057806342966c68146102c857806342b14996146102db57806355f804b3146102fb57600080fd5b8063248a9ca3146102775780632f2ff15d1461029a57806336568abe146102ad57600080fd5b80630a0442a8116101a25780630a0442a81461021b57806315873ccd1461022e57806318160ddd14610241578063191887941461025757600080fd5b806301ffc9a7146101c95780630607dcfb146101f157806306fdde0314610206575b600080fd5b6101dc6101d736600461230d565b610406565b60405190151581526020015b60405180910390f35b6102046101ff3660046123fc565b610417565b005b61020e610588565b6040516101e8919061260a565b610204610229366004612240565b61061a565b61020461023c36600461228e565b61064a565b61024961076b565b6040519081526020016101e8565b61026a61026536600461228e565b61077c565b6040516101e891906126ba565b61024961028536600461228e565b60009081526095602052604090206001015490565b6102046102a83660046122a6565b61091a565b6102046102bb3660046122a6565b610945565b6102046109c3565b6102046102d636600461228e565b6109da565b6102ee6102e9366004612240565b610a1c565b6040516101e891906125c6565b610204610309366004612345565b610adc565b60f95460ff166101dc565b61032c61032736600461228e565b610afc565b6040516001600160a01b0390911681526020016101e8565b610249610352366004612240565b610b61565b610204610be9565b61020461036d3660046122c8565b610bfd565b6101dc6103803660046122a6565b610cae565b61020e610cd9565b610249600081565b6102046103a336600461225a565b610ce8565b6102046103b6366004612378565b610e7d565b61012d546001600160a01b031661032c565b61020e6103db36600461228e565b610f7a565b6102496103ee36600461228e565b6110b3565b6102046104013660046122a6565b61112b565b600061041182611151565b92915050565b61012d546001600160a01b0316331461044b5760405162461bcd60e51b81526004016104429061261d565b60405180910390fd5b8035600090815261012f602052604090205461046681611176565b60008181526101316020526040908190209061048890606085019085016124ce565b8154600160a01b900463ffffffff9081169116146104d1576104b060608401604085016124ce565b815463ffffffff91909116600160a01b0263ffffffff60a01b199091161781555b6104e160808401606085016124ce565b8154600160c01b900463ffffffff90811691161461052a5761050960808401606085016124ce565b815463ffffffff91909116600160c01b0263ffffffff60c01b199091161781555b8260a001358160020154146105445760a083013560028201555b61054d82610afc565b6001600160a01b0316827f4d3bb727005cb0379aaa5ffcc1c2d3cc61ecffe7ecbfcbeb739749359d182a7260405160405180910390a3505050565b606060658054610597906127b9565b80601f01602080910402602001604051908101604052809291908181526020018280546105c3906127b9565b80156106105780601f106105e557610100808354040283529160200191610610565b820191906000526020600020905b8154815290600101906020018083116105f357829003601f168201915b5050505050905090565b600061062681336111da565b5061012d80546001600160a01b0319166001600160a01b0392909216919091179055565b60f95460ff161561066d5760405162461bcd60e51b815260040161044290612645565b600081815261012f6020908152604080832054835261013190915290205481906001600160a01b031633146106d55760405162461bcd60e51b815260206004820152600e60248201526d139bdd08185d5d1a1bdc9a5e995960921b6044820152606401610442565b600082815261012f6020526040812054906106ef82610afc565b60008381526101316020526040812080546001600160e01b03191681556001810180546001600160b01b0319169055600281018290559192506107356003830182612073565b5050600084815261012f6020526040812055610751818361123e565b61075c6101326113be565b61076582611415565b50505050565b60006107776101325490565b905090565b6040805160c0810182526000808252602080830182905282840182905260608084018390526080840183905260a0840152848252610131905291909120546001600160a01b03166108055760405162461bcd60e51b8152602060048201526013602482015272141c9bdbd988191bd95cdb89dd08195e1a5cdd606a1b6044820152606401610442565b60008281526101316020908152604091829020825160c08101845281546001600160a01b0381168252600160a01b810463ffffffff90811694830194909452600160c01b900490921692820192909252600182015460501b69ffffffffffffffffffff191660608201526002820154608082015260038201805491929160a084019190610891906127b9565b80601f01602080910402602001604051908101604052809291908181526020018280546108bd906127b9565b801561090a5780601f106108df5761010080835404028352916020019161090a565b820191906000526020600020905b8154815290600101906020018083116108ed57829003601f168201915b5050505050815250509050919050565b60008281526095602052604090206001015461093681336111da565b61094083836114a6565b505050565b6001600160a01b03811633146109b55760405162461bcd60e51b815260206004820152602f60248201527f416363657373436f6e74726f6c3a2063616e206f6e6c792072656e6f756e636560448201526e103937b632b9903337b91039b2b63360891b6064820152608401610442565b6109bf828261152c565b5050565b60006109cf81336111da565b6109d7611593565b50565b33156109d75760405162461bcd60e51b815260206004820152601160248201527013595d1a1bd9081c1c9bda1a589a5d1959607a1b6044820152606401610442565b6001600160a01b03811660009081526101306020526040902054606090610a715760405162461bcd60e51b81526020600482015260096024820152684e6f20746f6b656e7360b81b6044820152606401610442565b6001600160a01b0382166000908152610130602090815260409182902080548351818402810184019094528084529091830182828015610ad057602002820191906000526020600020905b815481526020019060010190808311610abc575b50505050509050919050565b6000610ae881336111da565b81516109409061012b9060208501906120ad565b6000818152606760205260408120546001600160a01b0316806104115760405162461bcd60e51b815260206004820152601c60248201527f6f776e65724f663a20746f6b656e20646f65736e2774206578697374000000006044820152606401610442565b60006001600160a01b038216610bcd5760405162461bcd60e51b815260206004820152602b60248201527f45524337343937333a2061646472657373207a65726f206973206e6f7420612060448201526a3b30b634b21037bbb732b960a91b6064820152608401610442565b506001600160a01b031660009081526068602052604090205490565b6000610bf581336111da565b6109d7611626565b61012d546001600160a01b03163314610c285760405162461bcd60e51b81526004016104429061261d565b600082815261012f6020526040902054610c4181611176565b60008181526101316020908152604090912083519091610c689160038401918601906120ad565b50610c7282610afc565b6001600160a01b0316827f4d3bb727005cb0379aaa5ffcc1c2d3cc61ecffe7ecbfcbeb739749359d182a7260405160405180910390a350505050565b60009182526095602090815260408084206001600160a01b0393909316845291905290205460ff1690565b606060668054610597906127b9565b600260c7541415610d3b5760405162461bcd60e51b815260206004820152601f60248201527f5265656e7472616e637947756172643a207265656e7472616e742063616c6c006044820152606401610442565b600260c75560f95460ff1615610d635760405162461bcd60e51b815260040161044290612645565b61012d546001600160a01b03163314610d8e5760405162461bcd60e51b81526004016104429061261d565b6001600160a01b038216610de45760405162461bcd60e51b815260206004820152601860248201527f4d696e7420746f20746865207a65726f206164647265737300000000000000006044820152606401610442565b8035600090815261012f602052604090205415610e345760405162461bcd60e51b815260206004820152600e60248201526d50726f6f6649642065786973747360901b6044820152606401610442565b600161012c6000828254610e489190612728565b90915550506101328054600101905561012c54610e749083610e6f36859003850185612418565b61167e565b5050600160c755565b600054610100900460ff16610e985760005460ff1615610e9c565b303b155b610eff5760405162461bcd60e51b815260206004820152602e60248201527f496e697469616c697a61626c653a20636f6e747261637420697320616c72656160448201526d191e481a5b9a5d1a585b1a5e995960921b6064820152608401610442565b600054610100900460ff16158015610f21576000805461ffff19166101011790555b610f2b84846117bd565b610f336117ee565b610f3b61182f565b610f4361185e565b610f4e6000336114a6565b8151610f629061012b9060208501906120ad565b508015610765576000805461ff001916905550505050565b6060610f8582611176565b61041161012b8054610f96906127b9565b80601f0160208091040260200160405190810160405280929190818152602001828054610fc2906127b9565b801561100f5780601f10610fe45761010080835404028352916020019161100f565b820191906000526020600020905b815481529060010190602001808311610ff257829003601f168201915b505050600086815261012e60205260409020805490925061103091506127b9565b80601f016020809104026020016040519081016040528092919081815260200182805461105c906127b9565b80156110a95780601f1061107e576101008083540402835291602001916110a9565b820191906000526020600020905b81548152906001019060200180831161108c57829003601f168201915b5050505050611895565b600081815261012f6020908152604080832054835260679091528120546001600160a01b03166111175760405162461bcd60e51b815260206004820152600f60248201526e125b9d985b1a59081c1c9bdbd99259608a1b6044820152606401610442565b50600090815261012f602052604090205490565b60008281526095602052604090206001015461114781336111da565b610940838361152c565b60006001600160e01b03198216637965db0b60e01b1480610411575061041182611a2e565b6000818152606760205260409020546001600160a01b03166109d75760405162461bcd60e51b815260206004820152601960248201527f455243343937333a20696e76616c696420746f6b656e204944000000000000006044820152606401610442565b6111e48282610cae565b6109bf576111fc816001600160a01b03166014611a7e565b611207836020611a7e565b604051602001611218929190612514565b60408051601f198184030181529082905262461bcd60e51b82526104429160040161260a565b6001600160a01b03821660009081526101306020908152604080832080548251818502810185019093528083529093926112af929185918301828280156112a457602002820191906000526020600020905b815481526020019060010190808311611290575b505050505084611c67565b905060008112156112f95760405162461bcd60e51b8152602060048201526014602482015273151bdad95b88191bd95cc81b9bdd08195e1a5cdd60621b6044820152606401610442565b805b82546113099060019061275f565b811015611383578261131c826001612728565b8154811061133a57634e487b7160e01b600052603260045260246000fd5b906000526020600020015483828154811061136557634e487b7160e01b600052603260045260246000fd5b6000918252602090912001558061137b816127ee565b9150506112fb565b50818054806113a257634e487b7160e01b600052603160045260246000fd5b6001900381819060005260206000200160009055905550505050565b80548061140d5760405162461bcd60e51b815260206004820152601b60248201527f436f756e7465723a2064656372656d656e74206f766572666c6f7700000000006044820152606401610442565b600019019055565b600061142082610afc565b6001600160a01b0381166000908152606860205260408120805492935060019290919061144e90849061275f565b909155505060008281526067602052604080822080546001600160a01b03191690555183916001600160a01b038416917fec9ab91322523c899ede7830ec9bfc992b5981cdcc27b91162fb23de5791117b9190a35050565b6114b08282610cae565b6109bf5760008281526095602090815260408083206001600160a01b03851684529091529020805460ff191660011790556114e83390565b6001600160a01b0316816001600160a01b0316837f2f8788117e7eff1d82e926ec794901d17c78024a50270940304540a733656f0d60405160405180910390a45050565b6115368282610cae565b156109bf5760008281526095602090815260408083206001600160a01b0385168085529252808320805460ff1916905551339285917ff6391f5c32d9c69d2a47ea670b442974b53935d1edc7fd64eb21e047a839171b9190a45050565b60f95460ff166115dc5760405162461bcd60e51b815260206004820152601460248201527314185d5cd8589b194e881b9bdd081c185d5cd95960621b6044820152606401610442565b60f9805460ff191690557f5db9ee0a495bf2e6ff9c91a7834c1ba4fdd244a5e8aa4e537bd38aeae4b073aa335b6040516001600160a01b03909116815260200160405180910390a1565b60f95460ff16156116495760405162461bcd60e51b815260040161044290612645565b60f9805460ff191660011790557f62e78cea01bee320cd4e420270b5ea74000d11b0c9f74754ebdbfc544b05a2586116093390565b8051600090815261012f602090815260408083208690556001600160a01b038086168452610130835281842080546001818101835591865284862001889055825160c08082018552870151831681528387015163ffffffff9081168287019081526060808a01518316848801908152888b015169ffffffffffffffffffff191691850191825260a0808c0151608087019081528951808c018b528c81529187019182528e8c526101318b5298909a2085518154945192518616600160c01b0263ffffffff60c01b1993909616600160a01b026001600160c01b0319909516981697909717929092179190911691909117845551918301805460509390931c6001600160b01b03199093169290921790915591516002820155925180519193926117af926003850192909101906120ad565b509050506109408284611cc7565b600054610100900460ff166117e45760405162461bcd60e51b81526004016104429061266f565b6109bf8282611ce1565b600054610100900460ff166118155760405162461bcd60e51b81526004016104429061266f565b61181d611d2f565b611825611d2f565b61182d611d2f565b565b600054610100900460ff166118565760405162461bcd60e51b81526004016104429061266f565b61182d611d56565b600054610100900460ff166118855760405162461bcd60e51b81526004016104429061266f565b61188d611d2f565b61182d611d84565b80518251606091849184916000916118ad9190612728565b67ffffffffffffffff8111156118d357634e487b7160e01b600052604160045260246000fd5b6040519080825280601f01601f1916602001820160405280156118fd576020820181803683370190505b509050806000805b85518110156119915785818151811061192e57634e487b7160e01b600052603260045260246000fd5b01602001516001600160f81b0319168383611948816127ee565b94508151811061196857634e487b7160e01b600052603260045260246000fd5b60200101906001600160f81b031916908160001a90535080611989816127ee565b915050611905565b5060005b8451811015611a21578481815181106119be57634e487b7160e01b600052603260045260246000fd5b01602001516001600160f81b03191683836119d8816127ee565b9450815181106119f857634e487b7160e01b600052603260045260246000fd5b60200101906001600160f81b031916908160001a90535080611a19816127ee565b915050611995565b5090979650505050505050565b60006001600160e01b03198216635164cf4760e01b1480611a5f57506001600160e01b03198216635b5e139f60e01b145b8061041157506301ffc9a760e01b6001600160e01b0319831614610411565b60606000611a8d836002612740565b611a98906002612728565b67ffffffffffffffff811115611abe57634e487b7160e01b600052604160045260246000fd5b6040519080825280601f01601f191660200182016040528015611ae8576020820181803683370190505b509050600360fc1b81600081518110611b1157634e487b7160e01b600052603260045260246000fd5b60200101906001600160f81b031916908160001a905350600f60fb1b81600181518110611b4e57634e487b7160e01b600052603260045260246000fd5b60200101906001600160f81b031916908160001a9053506000611b72846002612740565b611b7d906001612728565b90505b6001811115611c11576f181899199a1a9b1b9c1cb0b131b232b360811b85600f1660108110611bbf57634e487b7160e01b600052603260045260246000fd5b1a60f81b828281518110611be357634e487b7160e01b600052603260045260246000fd5b60200101906001600160f81b031916908160001a90535060049490941c93611c0a816127a2565b9050611b80565b508315611c605760405162461bcd60e51b815260206004820181905260248201527f537472696e67733a20686578206c656e67746820696e73756666696369656e746044820152606401610442565b9392505050565b6000805b8351811015611cbc5782848281518110611c9557634e487b7160e01b600052603260045260246000fd5b60200260200101511415611caa579050610411565b80611cb4816127ee565b915050611c6b565b506000199392505050565b6109bf828260405180602001604052806000815250611db7565b600054610100900460ff16611d085760405162461bcd60e51b81526004016104429061266f565b8151611d1b9060659060208501906120ad565b5080516109409060669060208401906120ad565b600054610100900460ff1661182d5760405162461bcd60e51b81526004016104429061266f565b600054610100900460ff16611d7d5760405162461bcd60e51b81526004016104429061266f565b600160c755565b600054610100900460ff16611dab5760405162461bcd60e51b81526004016104429061266f565b60f9805460ff19169055565b611dc18383611e38565b50611dcf6000848484611f1a565b6109405760405162461bcd60e51b815260206004820152603460248201527f455243343937333a207472616e7366657220746f206e6f6e20455243343937336044820152732932b1b2b4bb32b91034b6b83632b6b2b73a32b960611b6064820152608401610442565b6000818152606760205260408120546001600160a01b031615611e945760405162461bcd60e51b81526020600482015260146024820152736d696e743a20746f6b656e49442065786973747360601b6044820152606401610442565b6001600160a01b0383166000908152606860205260408120805460019290611ebd908490612728565b909155505060008281526067602052604080822080546001600160a01b0319166001600160a01b038716908117909155905184927fe9274a84b19e9428826de6bae8c48329354f8f0e73f771b97cae2d9dccd45a2791a350919050565b60006001600160a01b0384163b1561206757604051630a85bd0160e11b81526001600160a01b0385169063150b7a0290611f5e903390899088908890600401612589565b602060405180830381600087803b158015611f7857600080fd5b505af1925050508015611fa8575060408051601f3d908101601f19168201909252611fa591810190612329565b60015b61204d573d808015611fd6576040519150601f19603f3d011682016040523d82523d6000602084013e611fdb565b606091505b5080516120455760405162461bcd60e51b815260206004820152603260248201527f4552433732313a207472616e7366657220746f206e6f6e20455243373231526560448201527131b2b4bb32b91034b6b83632b6b2b73a32b960711b6064820152608401610442565b805181602001fd5b6001600160e01b031916630a85bd0160e11b14905061206b565b5060015b949350505050565b50805461207f906127b9565b6000825580601f1061208f575050565b601f0160209004906000526020600020908101906109d79190612131565b8280546120b9906127b9565b90600052602060002090601f0160209004810192826120db5760008555612121565b82601f106120f457805160ff1916838001178555612121565b82800160010185558215612121579182015b82811115612121578251825591602001919060010190612106565b5061212d929150612131565b5090565b5b8082111561212d5760008155600101612132565b80356001600160a01b038116811461215d57600080fd5b919050565b8035801515811461215d57600080fd5b803569ffffffffffffffffffff198116811461215d57600080fd5b600082601f83011261219d578081fd5b813567ffffffffffffffff808211156121b8576121b861281f565b604051601f8301601f19908116603f011681019082821181831017156121e0576121e061281f565b816040528381528660208588010111156121f8578485fd5b8360208701602083013792830160200193909352509392505050565b60006101008284031215612226578081fd5b50919050565b803563ffffffff8116811461215d57600080fd5b600060208284031215612251578081fd5b611c6082612146565b600080610120838503121561226d578081fd5b61227683612146565b91506122858460208501612214565b90509250929050565b60006020828403121561229f578081fd5b5035919050565b600080604083850312156122b8578182fd5b8235915061228560208401612146565b600080604083850312156122da578182fd5b82359150602083013567ffffffffffffffff8111156122f7578182fd5b6123038582860161218d565b9150509250929050565b60006020828403121561231e578081fd5b8135611c6081612835565b60006020828403121561233a578081fd5b8151611c6081612835565b600060208284031215612356578081fd5b813567ffffffffffffffff81111561236c578182fd5b61206b8482850161218d565b60008060006060848603121561238c578081fd5b833567ffffffffffffffff808211156123a3578283fd5b6123af8783880161218d565b945060208601359150808211156123c4578283fd5b6123d08783880161218d565b935060408601359150808211156123e5578283fd5b506123f28682870161218d565b9150509250925092565b6000610100828403121561240e578081fd5b611c608383612214565b600061010080838503121561242b578182fd5b6040519081019067ffffffffffffffff8211818310171561244e5761244e61281f565b816040528335815261246260208501612172565b60208201526124736040850161222c565b60408201526124846060850161222c565b606082015261249560808501612162565b608082015260a084013560a08201526124b060c08501612146565b60c08201526124c160e08501612146565b60e0820152949350505050565b6000602082840312156124df578081fd5b611c608261222c565b60008151808452612500816020860160208601612776565b601f01601f19169290920160200192915050565b7f416363657373436f6e74726f6c3a206163636f756e742000000000000000000081526000835161254c816017850160208801612776565b7001034b99036b4b9b9b4b733903937b6329607d1b601791840191820152835161257d816028840160208801612776565b01602801949350505050565b6001600160a01b03858116825284166020820152604081018390526080606082018190526000906125bc908301846124e8565b9695505050505050565b6020808252825182820181905260009190848201906040850190845b818110156125fe578351835292840192918401916001016125e2565b50909695505050505050565b602081526000611c6060208301846124e8565b6020808252600e908201526d24b73b30b634b21031b0b63632b960911b604082015260600190565b60208082526010908201526f14185d5cd8589b194e881c185d5cd95960821b604082015260600190565b6020808252602b908201527f496e697469616c697a61626c653a20636f6e7472616374206973206e6f74206960408201526a6e697469616c697a696e6760a81b606082015260800190565b6020815260018060a01b0382511660208201526000602083015163ffffffff8082166040850152806040860151166060850152505069ffffffffffffffffffff196060840151166080830152608083015160a083015260a083015160c08084015261206b60e08401826124e8565b6000821982111561273b5761273b612809565b500190565b600081600019048311821515161561275a5761275a612809565b500290565b60008282101561277157612771612809565b500390565b60005b83811015612791578181015183820152602001612779565b838111156107655750506000910152565b6000816127b1576127b1612809565b506000190190565b600181811c908216806127cd57607f821691505b6020821081141561222657634e487b7160e01b600052602260045260246000fd5b600060001982141561280257612802612809565b5060010190565b634e487b7160e01b600052601160045260246000fd5b634e487b7160e01b600052604160045260246000fd5b6001600160e01b0319811681146109d757600080fdfea26469706673582212207d85f7984e43b399bc5400ce68c4d0a093d86a2889c8fe8005b4de2a0641485864736f6c63430008040033",
  "linkReferences": {},
  "deployedLinkReferences": {}
}