{
  "_format": "hh-sol-artifact-1",
  "contractName": "Vesting",
  "sourceName": "contracts/Vesting.sol",
  "abi": [
    {
      "anonymous": false,
      "inputs": [
        {
          "indexed": true,
          "internalType": "bytes32",
          "name": "proofId",
          "type": "bytes32"
        },
        {
          "indexed": true,
          "internalType": "address",
          "name": "founder",
          "type": "address"
        }
      ],
      "name": "AddVestingInfo",
      "type": "event"
    },
    {
      "anonymous": false,
      "inputs": [
        {
          "indexed": true,
          "internalType": "address",
          "name": "previousOwner",
          "type": "address"
        },
        {
          "indexed": true,
          "internalType": "address",
          "name": "newOwner",
          "type": "address"
        }
      ],
      "name": "OwnershipTransferred",
      "type": "event"
    },
    {
      "anonymous": false,
      "inputs": [
        {
          "indexed": true,
          "internalType": "bytes32",
          "name": "proofId",
          "type": "bytes32"
        },
        {
          "indexed": true,
          "internalType": "address",
          "name": "mod",
          "type": "address"
        }
      ],
      "name": "Released",
      "type": "event"
    },
    {
      "anonymous": false,
      "inputs": [
        {
          "indexed": true,
          "internalType": "bytes32",
          "name": "proofId",
          "type": "bytes32"
        },
        {
          "indexed": true,
          "internalType": "address",
          "name": "founder",
          "type": "address"
        }
      ],
      "name": "Revoked",
      "type": "event"
    },
    {
      "anonymous": false,
      "inputs": [
        {
          "indexed": true,
          "internalType": "bytes32",
          "name": "proofId",
          "type": "bytes32"
        }
      ],
      "name": "UpdateVestingInfo",
      "type": "event"
    },
    {
      "inputs": [
        {
          "internalType": "bytes32",
          "name": "_proofId",
          "type": "bytes32"
        },
        {
          "internalType": "address",
          "name": "_founderAddress",
          "type": "address"
        },
        {
          "internalType": "address",
          "name": "_modAddress",
          "type": "address"
        },
        {
          "internalType": "uint256",
          "name": "_amount",
          "type": "uint256"
        },
        {
          "internalType": "uint32",
          "name": "_jobEndTime",
          "type": "uint32"
        },
        {
          "internalType": "uint256",
          "name": "_duration",
          "type": "uint256"
        }
      ],
      "name": "addVestingInfo",
      "outputs": [],
      "stateMutability": "nonpayable",
      "type": "function"
    },
    {
      "inputs": [],
      "name": "depositedToken",
      "outputs": [
        {
          "internalType": "contract IERC20Upgradeable",
          "name": "",
          "type": "address"
        }
      ],
      "stateMutability": "view",
      "type": "function"
    },
    {
      "inputs": [
        {
          "internalType": "contract IERC20Upgradeable",
          "name": "_depositedToken",
          "type": "address"
        }
      ],
      "name": "initialize",
      "outputs": [],
      "stateMutability": "nonpayable",
      "type": "function"
    },
    {
      "inputs": [
        {
          "internalType": "bytes32",
          "name": "",
          "type": "bytes32"
        }
      ],
      "name": "modInfoVesting",
      "outputs": [
        {
          "internalType": "address",
          "name": "founderAddress",
          "type": "address"
        },
        {
          "internalType": "address",
          "name": "modAddress",
          "type": "address"
        },
        {
          "internalType": "uint256",
          "name": "amount",
          "type": "uint256"
        },
        {
          "internalType": "uint256",
          "name": "released",
          "type": "uint256"
        },
        {
          "internalType": "uint32",
          "name": "jobEndTime",
          "type": "uint32"
        },
        {
          "internalType": "uint256",
          "name": "duration",
          "type": "uint256"
        },
        {
          "internalType": "bool",
          "name": "completed",
          "type": "bool"
        }
      ],
      "stateMutability": "view",
      "type": "function"
    },
    {
      "inputs": [],
      "name": "owner",
      "outputs": [
        {
          "internalType": "address",
          "name": "",
          "type": "address"
        }
      ],
      "stateMutability": "view",
      "type": "function"
    },
    {
      "inputs": [
        {
          "internalType": "bytes32",
          "name": "_proofId",
          "type": "bytes32"
        }
      ],
      "name": "release",
      "outputs": [],
      "stateMutability": "nonpayable",
      "type": "function"
    },
    {
      "inputs": [
        {
          "internalType": "bytes32",
          "name": "_proofId",
          "type": "bytes32"
        }
      ],
      "name": "releaseAmount",
      "outputs": [
        {
          "internalType": "uint256",
          "name": "",
          "type": "uint256"
        }
      ],
      "stateMutability": "view",
      "type": "function"
    },
    {
      "inputs": [],
      "name": "renounceOwnership",
      "outputs": [],
      "stateMutability": "nonpayable",
      "type": "function"
    },
    {
      "inputs": [
        {
          "internalType": "bytes32",
          "name": "_proofId",
          "type": "bytes32"
        }
      ],
      "name": "revoke",
      "outputs": [],
      "stateMutability": "nonpayable",
      "type": "function"
    },
    {
      "inputs": [
        {
          "internalType": "address",
          "name": "_contractAddr",
          "type": "address"
        }
      ],
      "name": "setAgreementContractAddress",
      "outputs": [],
      "stateMutability": "nonpayable",
      "type": "function"
    },
    {
      "inputs": [
        {
          "internalType": "address",
          "name": "_depositedToken",
          "type": "address"
        }
      ],
      "name": "setDepoistedToken",
      "outputs": [],
      "stateMutability": "nonpayable",
      "type": "function"
    },
    {
      "inputs": [
        {
          "internalType": "address",
          "name": "newOwner",
          "type": "address"
        }
      ],
      "name": "transferOwnership",
      "outputs": [],
      "stateMutability": "nonpayable",
      "type": "function"
    },
    {
      "inputs": [
        {
          "internalType": "bytes32",
          "name": "_proofId",
          "type": "bytes32"
        },
        {
          "internalType": "uint256",
          "name": "_amount",
          "type": "uint256"
        },
        {
          "internalType": "uint32",
          "name": "_jobEndTime",
          "type": "uint32"
        }
      ],
      "name": "updateVestingInfo",
      "outputs": [],
      "stateMutability": "nonpayable",
      "type": "function"
    }
  ],
  "bytecode": "0x608060405234801561001057600080fd5b50611548806100206000396000f3fe608060405234801561001057600080fd5b50600436106100cf5760003560e01c806390156c581161008c578063c4d66de811610066578063c4d66de814610231578063dad9b08614610244578063f22e88b614610257578063f2fde38b1461026a57600080fd5b806390156c58146101f8578063b75c7dc61461020b578063bace68651461021e57600080fd5b80630a0442a8146100d45780631e5d7be5146100e9578063663b61b21461019757806367d42a8b146101b8578063715018a6146101cb5780638da5cb5b146101d3575b600080fd5b6100e76100e2366004611227565b61027d565b005b61014a6100f7366004611263565b60996020526000908152604090208054600182015460028301546003840154600485015460058601546006909601546001600160a01b039586169695909416949293919263ffffffff9091169160ff1687565b604080516001600160a01b03988916815297909616602088015294860193909352606085019190915263ffffffff16608084015260a0830152151560c082015260e0015b60405180910390f35b6101aa6101a5366004611263565b6102d2565b60405190815260200161018e565b6100e76101c6366004611263565b61040d565b6100e76105eb565b6065546001600160a01b03165b6040516001600160a01b03909116815260200161018e565b6100e761020636600461127b565b610621565b6100e7610219366004611263565b6109cf565b6100e761022c366004611227565b610af2565b6100e761023f366004611227565b610b3e565b6097546101e0906001600160a01b031681565b6100e76102653660046112dd565b610c23565b6100e7610278366004611227565b610d45565b6065546001600160a01b031633146102b05760405162461bcd60e51b81526004016102a790611378565b60405180910390fd5b609880546001600160a01b0319166001600160a01b0392909216919091179055565b60008181526099602052604081205482906001600160a01b03166103085760405162461bcd60e51b81526004016102a7906113ad565b600083815260996020908152604091829020825160e08101845281546001600160a01b0390811682526001830154169281019290925260028101549282019290925260038201546060820152600482015463ffffffff1660808201819052600583015460a083015260069092015460ff16151560c082015290421015610392576000925050610407565b6000816060015182604001516103a891906114a4565b90508160a00151826080015163ffffffff166103c4919061144d565b4211156103d45792506104079050565b60a082015160808301516103ee9063ffffffff16426114a4565b6103f89083611485565b6104029190611465565b935050505b50919050565b60008181526099602052604090205481906001600160a01b03166104435760405162461bcd60e51b81526004016102a7906113ad565b600082815260996020526040902060018101546001600160a01b031633146104ad5760405162461bcd60e51b815260206004820152601d60248201527f6d73672e73656e646572206d757374206265206d6f644164647265737300000060448201526064016102a7565b600481015463ffffffff1642116105065760405162461bcd60e51b815260206004820152601860248201527f6e6f77206d757374206265203e206a6f62456e6454696d65000000000000000060448201526064016102a7565b600681015460ff161561055b5760405162461bcd60e51b815260206004820152601e60248201527f72656c656173653a20796f7520616c726561647920636f6d706c65746564000060448201526064016102a7565b6000610566846102d2565b90508082600301600082825461057c919061144d565b90915550506003820154600283015414156105a15760068201805460ff191660011790555b6097546105b8906001600160a01b03163383610de0565b604051339085907f345362b837633de0469dca5c44bbd675927342809c833db95ef5fd9c284d34fe90600090a350505050565b6065546001600160a01b031633146106155760405162461bcd60e51b81526004016102a790611378565b61061f6000610e48565b565b6098546001600160a01b0316331461064b5760405162461bcd60e51b81526004016102a790611425565b6001600160a01b0385166106a15760405162461bcd60e51b815260206004820152601b60248201527f666f756e64657220697320746865207a65726f2061646472657373000000000060448201526064016102a7565b6001600160a01b0384166106f75760405162461bcd60e51b815260206004820152601760248201527f6d6f6420697320746865207a65726f206164647265737300000000000000000060448201526064016102a7565b826107395760405162461bcd60e51b81526020600482015260126024820152710616d6f756e74206d757374206265203e20360741b60448201526064016102a7565b6097546040516370a0823160e01b81526001600160a01b038781166004830152859216906370a082319060240160206040518083038186803b15801561077e57600080fd5b505afa158015610792573d6000803e3d6000fd5b505050506040513d601f19601f820116820180604052508101906107b69190611311565b10156108045760405162461bcd60e51b815260206004820152601a60248201527f696e73756666696369656e7420746f6b656e2062616c616e636500000000000060448201526064016102a7565b428263ffffffff16116108545760405162461bcd60e51b81526020600482015260186024820152776a6f62456e6474696d65206d757374206265203e206e6f7760401b60448201526064016102a7565b60975461086c906001600160a01b0316863086610e9a565b6040518060e00160405280866001600160a01b03168152602001856001600160a01b03168152602001848152602001600081526020018363ffffffff168152602001828152602001600015158152506099600088815260200190815260200160002060008201518160000160006101000a8154816001600160a01b0302191690836001600160a01b0316021790555060208201518160010160006101000a8154816001600160a01b0302191690836001600160a01b03160217905550604082015181600201556060820151816003015560808201518160040160006101000a81548163ffffffff021916908363ffffffff16021790555060a0820151816005015560c08201518160060160006101000a81548160ff021916908315150217905550905050846001600160a01b0316867f4b5716eb536e9132272fba487c06b88c0132d8571faad2aeadc3a75e0df1d07660405160405180910390a3505050505050565b60008181526099602052604090205481906001600160a01b0316610a055760405162461bcd60e51b81526004016102a7906113ad565b6098546001600160a01b03163314610a2f5760405162461bcd60e51b81526004016102a790611425565b6000828152609960205260409020600681015460ff1615610a925760405162461bcd60e51b815260206004820152601d60248201527f7265766f6b653a20796f7520616c726561647920636f6d706c6574656400000060448201526064016102a7565b60068101805460ff191660011790556002810154609754610ac0916001600160a01b03909116903390610de0565b604051339084907f5bc2baf870c5baf189838b5e0b0e3b04a3263e2df5d305d1c15f3e6022f5dc4590600090a3505050565b6065546001600160a01b03163314610b1c5760405162461bcd60e51b81526004016102a790611378565b609780546001600160a01b0319166001600160a01b0392909216919091179055565b600054610100900460ff16610b595760005460ff1615610b5d565b303b155b610bc05760405162461bcd60e51b815260206004820152602e60248201527f496e697469616c697a61626c653a20636f6e747261637420697320616c72656160448201526d191e481a5b9a5d1a585b1a5e995960921b60648201526084016102a7565b600054610100900460ff16158015610be2576000805461ffff19166101011790555b610bea610ed8565b610bf2610f0f565b609780546001600160a01b0319166001600160a01b0384161790558015610c1f576000805461ff00191690555b5050565b60008381526099602052604090205483906001600160a01b0316610c595760405162461bcd60e51b81526004016102a7906113ad565b6098546001600160a01b03163314610c835760405162461bcd60e51b81526004016102a790611425565b600084815260996020526040902063ffffffff831615610d0557428363ffffffff1611610ced5760405162461bcd60e51b81526020600482015260186024820152776a6f62456e6474696d65206d757374206265203e206e6f7760401b60448201526064016102a7565b60048101805463ffffffff191663ffffffff85161790555b8315610d1357600281018490555b60405185907f8701ceef6c101dfa1ca431de5fc0db09d81269aa06eb7f36008b2c82904249ea90600090a25050505050565b6065546001600160a01b03163314610d6f5760405162461bcd60e51b81526004016102a790611378565b6001600160a01b038116610dd45760405162461bcd60e51b815260206004820152602660248201527f4f776e61626c653a206e6577206f776e657220697320746865207a65726f206160448201526564647265737360d01b60648201526084016102a7565b610ddd81610e48565b50565b6040516001600160a01b038316602482015260448101829052610e4390849063a9059cbb60e01b906064015b60408051601f198184030181529190526020810180516001600160e01b03166001600160e01b031990931692909217909152610f3e565b505050565b606580546001600160a01b038381166001600160a01b0319831681179093556040519116919082907f8be0079c531659141344cd1fd0a4f28419497f9722a3daafe3b4186f6b6457e090600090a35050565b6040516001600160a01b0380851660248301528316604482015260648101829052610ed29085906323b872dd60e01b90608401610e0c565b50505050565b600054610100900460ff16610eff5760405162461bcd60e51b81526004016102a7906113da565b610f07611010565b61061f611037565b600054610100900460ff16610f365760405162461bcd60e51b81526004016102a7906113da565b61061f611067565b6000610f93826040518060400160405280602081526020017f5361666545524332303a206c6f772d6c6576656c2063616c6c206661696c6564815250856001600160a01b03166110949092919063ffffffff16565b805190915015610e435780806020019051810190610fb19190611243565b610e435760405162461bcd60e51b815260206004820152602a60248201527f5361666545524332303a204552433230206f7065726174696f6e20646964206e6044820152691bdd081cdd58d8d9595960b21b60648201526084016102a7565b600054610100900460ff1661061f5760405162461bcd60e51b81526004016102a7906113da565b600054610100900460ff1661105e5760405162461bcd60e51b81526004016102a7906113da565b61061f33610e48565b600054610100900460ff1661108e5760405162461bcd60e51b81526004016102a7906113da565b60018055565b60606110a384846000856110ad565b90505b9392505050565b60608247101561110e5760405162461bcd60e51b815260206004820152602660248201527f416464726573733a20696e73756666696369656e742062616c616e636520666f6044820152651c8818d85b1b60d21b60648201526084016102a7565b843b61115c5760405162461bcd60e51b815260206004820152601d60248201527f416464726573733a2063616c6c20746f206e6f6e2d636f6e747261637400000060448201526064016102a7565b600080866001600160a01b031685876040516111789190611329565b60006040518083038185875af1925050503d80600081146111b5576040519150601f19603f3d011682016040523d82523d6000602084013e6111ba565b606091505b50915091506111ca8282866111d5565b979650505050505050565b606083156111e45750816110a6565b8251156111f45782518084602001fd5b8160405162461bcd60e51b81526004016102a79190611345565b803563ffffffff8116811461122257600080fd5b919050565b600060208284031215611238578081fd5b81356110a6816114fd565b600060208284031215611254578081fd5b815180151581146110a6578182fd5b600060208284031215611274578081fd5b5035919050565b60008060008060008060c08789031215611293578182fd5b8635955060208701356112a5816114fd565b945060408701356112b5816114fd565b9350606087013592506112ca6080880161120e565b915060a087013590509295509295509295565b6000806000606084860312156112f1578283fd5b83359250602084013591506113086040850161120e565b90509250925092565b600060208284031215611322578081fd5b5051919050565b6000825161133b8184602087016114bb565b9190910192915050565b60208152600082518060208401526113648160408501602087016114bb565b601f01601f19169190910160400192915050565b6020808252818101527f4f776e61626c653a2063616c6c6572206973206e6f7420746865206f776e6572604082015260600190565b602080825260139082015272141c9bdbd988191bd95cdb89dd08195e1a5cdd606a1b604082015260600190565b6020808252602b908201527f496e697469616c697a61626c653a20636f6e7472616374206973206e6f74206960408201526a6e697469616c697a696e6760a81b606082015260800190565b6020808252600e908201526d139bdd08185d5d1a1bdc9a5e995960921b604082015260600190565b60008219821115611460576114606114e7565b500190565b60008261148057634e487b7160e01b81526012600452602481fd5b500490565b600081600019048311821515161561149f5761149f6114e7565b500290565b6000828210156114b6576114b66114e7565b500390565b60005b838110156114d65781810151838201526020016114be565b83811115610ed25750506000910152565b634e487b7160e01b600052601160045260246000fd5b6001600160a01b0381168114610ddd57600080fdfea2646970667358221220e478354dec217e8023a018612b81ebc36f70ef6703ffcd3620d71727e4ff6ce264736f6c63430008040033",
  "linkReferences": {},
  "deployedLinkReferences": {}
}