{
  "_format": "hh-sol-artifact-1",
  "contractName": "Token",
  "sourceName": "contracts/Token.sol",
  "abi": [
    {
      "inputs": [
        {
          "internalType": "string",
          "name": "name",
          "type": "string"
        },
        {
          "internalType": "string",
          "name": "symbol",
          "type": "string"
        }
      ],
      "stateMutability": "nonpayable",
      "type": "constructor"
    },
    {
      "anonymous": false,
      "inputs": [
        {
          "indexed": true,
          "internalType": "address",
          "name": "owner",
          "type": "address"
        },
        {
          "indexed": true,
          "internalType": "address",
          "name": "spender",
          "type": "address"
        },
        {
          "indexed": false,
          "internalType": "uint256",
          "name": "value",
          "type": "uint256"
        }
      ],
      "name": "Approval",
      "type": "event"
    },
    {
      "anonymous": false,
      "inputs": [
        {
          "indexed": true,
          "internalType": "bytes32",
          "name": "role",
          "type": "bytes32"
        },
        {
          "indexed": true,
          "internalType": "bytes32",
          "name": "previousAdminRole",
          "type": "bytes32"
        },
        {
          "indexed": true,
          "internalType": "bytes32",
          "name": "newAdminRole",
          "type": "bytes32"
        }
      ],
      "name": "RoleAdminChanged",
      "type": "event"
    },
    {
      "anonymous": false,
      "inputs": [
        {
          "indexed": true,
          "internalType": "bytes32",
          "name": "role",
          "type": "bytes32"
        },
        {
          "indexed": true,
          "internalType": "address",
          "name": "account",
          "type": "address"
        },
        {
          "indexed": true,
          "internalType": "address",
          "name": "sender",
          "type": "address"
        }
      ],
      "name": "RoleGranted",
      "type": "event"
    },
    {
      "anonymous": false,
      "inputs": [
        {
          "indexed": true,
          "internalType": "bytes32",
          "name": "role",
          "type": "bytes32"
        },
        {
          "indexed": true,
          "internalType": "address",
          "name": "account",
          "type": "address"
        },
        {
          "indexed": true,
          "internalType": "address",
          "name": "sender",
          "type": "address"
        }
      ],
      "name": "RoleRevoked",
      "type": "event"
    },
    {
      "anonymous": false,
      "inputs": [
        {
          "indexed": false,
          "internalType": "uint256",
          "name": "id",
          "type": "uint256"
        }
      ],
      "name": "Snapshot",
      "type": "event"
    },
    {
      "anonymous": false,
      "inputs": [
        {
          "indexed": true,
          "internalType": "address",
          "name": "from",
          "type": "address"
        },
        {
          "indexed": true,
          "internalType": "address",
          "name": "to",
          "type": "address"
        },
        {
          "indexed": false,
          "internalType": "uint256",
          "name": "value",
          "type": "uint256"
        }
      ],
      "name": "Transfer",
      "type": "event"
    },
    {
      "inputs": [
        {
          "internalType": "address[]",
          "name": "_targetAddresses",
          "type": "address[]"
        },
        {
          "internalType": "uint256[]",
          "name": "_value",
          "type": "uint256[]"
        }
      ],
      "name": "AirDrop",
      "outputs": [],
      "stateMutability": "nonpayable",
      "type": "function"
    },
    {
      "inputs": [],
      "name": "DEFAULT_ADMIN_ROLE",
      "outputs": [
        {
          "internalType": "bytes32",
          "name": "",
          "type": "bytes32"
        }
      ],
      "stateMutability": "view",
      "type": "function"
    },
    {
      "inputs": [],
      "name": "MINTER_ROLE",
      "outputs": [
        {
          "internalType": "bytes32",
          "name": "",
          "type": "bytes32"
        }
      ],
      "stateMutability": "view",
      "type": "function"
    },
    {
      "inputs": [],
      "name": "SNAPSHOT_ROLE",
      "outputs": [
        {
          "internalType": "bytes32",
          "name": "",
          "type": "bytes32"
        }
      ],
      "stateMutability": "view",
      "type": "function"
    },
    {
      "inputs": [
        {
          "internalType": "address",
          "name": "owner",
          "type": "address"
        },
        {
          "internalType": "address",
          "name": "spender",
          "type": "address"
        }
      ],
      "name": "allowance",
      "outputs": [
        {
          "internalType": "uint256",
          "name": "",
          "type": "uint256"
        }
      ],
      "stateMutability": "view",
      "type": "function"
    },
    {
      "inputs": [
        {
          "internalType": "address",
          "name": "spender",
          "type": "address"
        },
        {
          "internalType": "uint256",
          "name": "amount",
          "type": "uint256"
        }
      ],
      "name": "approve",
      "outputs": [
        {
          "internalType": "bool",
          "name": "",
          "type": "bool"
        }
      ],
      "stateMutability": "nonpayable",
      "type": "function"
    },
    {
      "inputs": [
        {
          "internalType": "address",
          "name": "account",
          "type": "address"
        }
      ],
      "name": "balanceOf",
      "outputs": [
        {
          "internalType": "uint256",
          "name": "",
          "type": "uint256"
        }
      ],
      "stateMutability": "view",
      "type": "function"
    },
    {
      "inputs": [
        {
          "internalType": "address",
          "name": "account",
          "type": "address"
        },
        {
          "internalType": "uint256",
          "name": "snapshotId",
          "type": "uint256"
        }
      ],
      "name": "balanceOfAt",
      "outputs": [
        {
          "internalType": "uint256",
          "name": "",
          "type": "uint256"
        }
      ],
      "stateMutability": "view",
      "type": "function"
    },
    {
      "inputs": [
        {
          "internalType": "uint256",
          "name": "amount",
          "type": "uint256"
        }
      ],
      "name": "burn",
      "outputs": [],
      "stateMutability": "nonpayable",
      "type": "function"
    },
    {
      "inputs": [
        {
          "internalType": "address",
          "name": "account",
          "type": "address"
        },
        {
          "internalType": "uint256",
          "name": "amount",
          "type": "uint256"
        }
      ],
      "name": "burnFrom",
      "outputs": [],
      "stateMutability": "nonpayable",
      "type": "function"
    },
    {
      "inputs": [],
      "name": "decimals",
      "outputs": [
        {
          "internalType": "uint8",
          "name": "",
          "type": "uint8"
        }
      ],
      "stateMutability": "view",
      "type": "function"
    },
    {
      "inputs": [
        {
          "internalType": "address",
          "name": "spender",
          "type": "address"
        },
        {
          "internalType": "uint256",
          "name": "subtractedValue",
          "type": "uint256"
        }
      ],
      "name": "decreaseAllowance",
      "outputs": [
        {
          "internalType": "bool",
          "name": "",
          "type": "bool"
        }
      ],
      "stateMutability": "nonpayable",
      "type": "function"
    },
    {
      "inputs": [
        {
          "internalType": "bytes32",
          "name": "role",
          "type": "bytes32"
        }
      ],
      "name": "getRoleAdmin",
      "outputs": [
        {
          "internalType": "bytes32",
          "name": "",
          "type": "bytes32"
        }
      ],
      "stateMutability": "view",
      "type": "function"
    },
    {
      "inputs": [
        {
          "internalType": "bytes32",
          "name": "role",
          "type": "bytes32"
        },
        {
          "internalType": "address",
          "name": "account",
          "type": "address"
        }
      ],
      "name": "grantRole",
      "outputs": [],
      "stateMutability": "nonpayable",
      "type": "function"
    },
    {
      "inputs": [
        {
          "internalType": "bytes32",
          "name": "role",
          "type": "bytes32"
        },
        {
          "internalType": "address",
          "name": "account",
          "type": "address"
        }
      ],
      "name": "hasRole",
      "outputs": [
        {
          "internalType": "bool",
          "name": "",
          "type": "bool"
        }
      ],
      "stateMutability": "view",
      "type": "function"
    },
    {
      "inputs": [
        {
          "internalType": "address",
          "name": "spender",
          "type": "address"
        },
        {
          "internalType": "uint256",
          "name": "addedValue",
          "type": "uint256"
        }
      ],
      "name": "increaseAllowance",
      "outputs": [
        {
          "internalType": "bool",
          "name": "",
          "type": "bool"
        }
      ],
      "stateMutability": "nonpayable",
      "type": "function"
    },
    {
      "inputs": [
        {
          "internalType": "address",
          "name": "to",
          "type": "address"
        },
        {
          "internalType": "uint256",
          "name": "amount",
          "type": "uint256"
        }
      ],
      "name": "mint",
      "outputs": [],
      "stateMutability": "nonpayable",
      "type": "function"
    },
    {
      "inputs": [],
      "name": "name",
      "outputs": [
        {
          "internalType": "string",
          "name": "",
          "type": "string"
        }
      ],
      "stateMutability": "view",
      "type": "function"
    },
    {
      "inputs": [
        {
          "internalType": "bytes32",
          "name": "role",
          "type": "bytes32"
        },
        {
          "internalType": "address",
          "name": "account",
          "type": "address"
        }
      ],
      "name": "renounceRole",
      "outputs": [],
      "stateMutability": "nonpayable",
      "type": "function"
    },
    {
      "inputs": [
        {
          "internalType": "bytes32",
          "name": "role",
          "type": "bytes32"
        },
        {
          "internalType": "address",
          "name": "account",
          "type": "address"
        }
      ],
      "name": "revokeRole",
      "outputs": [],
      "stateMutability": "nonpayable",
      "type": "function"
    },
    {
      "inputs": [],
      "name": "snapshot",
      "outputs": [],
      "stateMutability": "nonpayable",
      "type": "function"
    },
    {
      "inputs": [
        {
          "internalType": "bytes4",
          "name": "interfaceId",
          "type": "bytes4"
        }
      ],
      "name": "supportsInterface",
      "outputs": [
        {
          "internalType": "bool",
          "name": "",
          "type": "bool"
        }
      ],
      "stateMutability": "view",
      "type": "function"
    },
    {
      "inputs": [],
      "name": "symbol",
      "outputs": [
        {
          "internalType": "string",
          "name": "",
          "type": "string"
        }
      ],
      "stateMutability": "view",
      "type": "function"
    },
    {
      "inputs": [],
      "name": "totalSupply",
      "outputs": [
        {
          "internalType": "uint256",
          "name": "",
          "type": "uint256"
        }
      ],
      "stateMutability": "view",
      "type": "function"
    },
    {
      "inputs": [
        {
          "internalType": "uint256",
          "name": "snapshotId",
          "type": "uint256"
        }
      ],
      "name": "totalSupplyAt",
      "outputs": [
        {
          "internalType": "uint256",
          "name": "",
          "type": "uint256"
        }
      ],
      "stateMutability": "view",
      "type": "function"
    },
    {
      "inputs": [
        {
          "internalType": "address",
          "name": "to",
          "type": "address"
        },
        {
          "internalType": "uint256",
          "name": "amount",
          "type": "uint256"
        }
      ],
      "name": "transfer",
      "outputs": [
        {
          "internalType": "bool",
          "name": "",
          "type": "bool"
        }
      ],
      "stateMutability": "nonpayable",
      "type": "function"
    },
    {
      "inputs": [
        {
          "internalType": "address",
          "name": "from",
          "type": "address"
        },
        {
          "internalType": "address",
          "name": "to",
          "type": "address"
        },
        {
          "internalType": "uint256",
          "name": "amount",
          "type": "uint256"
        }
      ],
      "name": "transferFrom",
      "outputs": [
        {
          "internalType": "bool",
          "name": "",
          "type": "bool"
        }
      ],
      "stateMutability": "nonpayable",
      "type": "function"
    }
  ],
  "bytecode": "0x60806040523480156200001157600080fd5b5060405162001de538038062001de58339810160408190526200003491620002d3565b8151829082906200004d9060039060208501906200017a565b508051620000639060049060208401906200017a565b506200007591506000905033620000d5565b620000a17f5fdbd35e8da83ee755d5e62a539e5ed7f47126abede0b8b10f9ea43dc6eed07f33620000d5565b620000cd7f9f2df0fed2c77648de5860a4cc508cd0818c85b8b8a1ab4ceeef8d981c8956a633620000d5565b50506200038d565b60008281526009602090815260408083206001600160a01b038516845290915290205460ff16620001765760008281526009602090815260408083206001600160a01b03851684529091529020805460ff19166001179055620001353390565b6001600160a01b0316816001600160a01b0316837f2f8788117e7eff1d82e926ec794901d17c78024a50270940304540a733656f0d60405160405180910390a45b5050565b82805462000188906200033a565b90600052602060002090601f016020900481019282620001ac5760008555620001f7565b82601f10620001c757805160ff1916838001178555620001f7565b82800160010185558215620001f7579182015b82811115620001f7578251825591602001919060010190620001da565b506200020592915062000209565b5090565b5b808211156200020557600081556001016200020a565b600082601f83011262000231578081fd5b81516001600160401b03808211156200024e576200024e62000377565b604051601f8301601f19908116603f0116810190828211818310171562000279576200027962000377565b8160405283815260209250868385880101111562000295578485fd5b8491505b83821015620002b8578582018301518183018401529082019062000299565b83821115620002c957848385830101525b9695505050505050565b60008060408385031215620002e6578182fd5b82516001600160401b0380821115620002fd578384fd5b6200030b8683870162000220565b9350602085015191508082111562000321578283fd5b50620003308582860162000220565b9150509250929050565b600181811c908216806200034f57607f821691505b602082108114156200037157634e487b7160e01b600052602260045260246000fd5b50919050565b634e487b7160e01b600052604160045260246000fd5b611a48806200039d6000396000f3fe608060405234801561001057600080fd5b50600436106101a95760003560e01c806351524e5b116100f9578063981b24d011610097578063a9059cbb11610071578063a9059cbb14610390578063d5391393146103a3578063d547741f146103ca578063dd62ed3e146103dd57600080fd5b8063981b24d014610362578063a217fddf14610375578063a457c2d71461037d57600080fd5b806379cc6790116100d357806379cc67901461032c57806391d148541461033f57806395d89b41146103525780639711715a1461035a57600080fd5b806351524e5b146102c95780637028e2cd146102dc57806370a082311461030357600080fd5b80632f2ff15d116101665780633950935111610140578063395093511461027d57806340c10f191461029057806342966c68146102a35780634ee2cd7e146102b657600080fd5b80632f2ff15d14610246578063313ce5671461025b57806336568abe1461026a57600080fd5b806301ffc9a7146101ae57806306fdde03146101d6578063095ea7b3146101eb57806318160ddd146101fe57806323b872dd14610210578063248a9ca314610223575b600080fd5b6101c16101bc3660046117ba565b6103f0565b60405190151581526020015b60405180910390f35b6101de610427565b6040516101cd9190611857565b6101c16101f9366004611696565b6104b9565b6002545b6040519081526020016101cd565b6101c161021e36600461165b565b6104d1565b610202610231366004611780565b60009081526009602052604090206001015490565b610259610254366004611798565b6104f5565b005b604051601281526020016101cd565b610259610278366004611798565b61051f565b6101c161028b366004611696565b6105a2565b61025961029e366004611696565b6105c4565b6102596102b1366004611780565b6105f8565b6102026102c4366004611696565b610605565b6102596102d73660046116bf565b61065e565b6102027f5fdbd35e8da83ee755d5e62a539e5ed7f47126abede0b8b10f9ea43dc6eed07f81565b61020261031136600461160f565b6001600160a01b031660009081526020819052604090205490565b61025961033a366004611696565b610766565b6101c161034d366004611798565b61077b565b6101de6107a6565b6102596107b5565b610202610370366004611780565b6107e7565b610202600081565b6101c161038b366004611696565b610812565b6101c161039e366004611696565b61088d565b6102027f9f2df0fed2c77648de5860a4cc508cd0818c85b8b8a1ab4ceeef8d981c8956a681565b6102596103d8366004611798565b61089b565b6102026103eb366004611629565b6108c0565b60006001600160e01b03198216637965db0b60e01b148061042157506301ffc9a760e01b6001600160e01b03198316145b92915050565b60606003805461043690611990565b80601f016020809104026020016040519081016040528092919081815260200182805461046290611990565b80156104af5780601f10610484576101008083540402835291602001916104af565b820191906000526020600020905b81548152906001019060200180831161049257829003601f168201915b5050505050905090565b6000336104c78185856108eb565b5060019392505050565b6000336104df858285610a0f565b6104ea858585610a89565b506001949350505050565b60008281526009602052604090206001015461051081610c62565b61051a8383610c6c565b505050565b6001600160a01b03811633146105945760405162461bcd60e51b815260206004820152602f60248201527f416363657373436f6e74726f6c3a2063616e206f6e6c792072656e6f756e636560448201526e103937b632b9903337b91039b2b63360891b60648201526084015b60405180910390fd5b61059e8282610cf2565b5050565b6000336104c78185856105b583836108c0565b6105bf91906118df565b6108eb565b7f9f2df0fed2c77648de5860a4cc508cd0818c85b8b8a1ab4ceeef8d981c8956a66105ee81610c62565b61051a8383610d59565b6106023382610e44565b50565b6001600160a01b03821660009081526005602052604081208190819061062c908590610f9e565b9150915081610653576001600160a01b038516600090815260208190526040902054610655565b805b95945050505050565b7f9f2df0fed2c77648de5860a4cc508cd0818c85b8b8a1ab4ceeef8d981c8956a661068881610c62565b81518351146106ea5760405162461bcd60e51b815260206004820152602860248201527f5f7461726765744164647265737365732e6c656e67746820213d205f76616c756044820152670ca5cd8cadccee8d60c31b606482015260840161058b565b825160005b8181101561075f5761074f85828151811061071a57634e487b7160e01b600052603260045260246000fd5b602002602001015185838151811061074257634e487b7160e01b600052603260045260246000fd5b6020026020010151610d59565b610758816119cb565b90506106ef565b5050505050565b610771823383610a0f565b61059e8282610e44565b60009182526009602090815260408084206001600160a01b0393909316845291905290205460ff1690565b60606004805461043690611990565b7f5fdbd35e8da83ee755d5e62a539e5ed7f47126abede0b8b10f9ea43dc6eed07f6107df81610c62565b61059e6110a3565b60008060006107f7846006610f9e565b91509150816108085760025461080a565b805b949350505050565b6000338161082082866108c0565b9050838110156108805760405162461bcd60e51b815260206004820152602560248201527f45524332303a2064656372656173656420616c6c6f77616e63652062656c6f77604482015264207a65726f60d81b606482015260840161058b565b6104ea82868684036108eb565b6000336104c7818585610a89565b6000828152600960205260409020600101546108b681610c62565b61051a8383610cf2565b6001600160a01b03918216600090815260016020908152604080832093909416825291909152205490565b6001600160a01b03831661094d5760405162461bcd60e51b8152602060048201526024808201527f45524332303a20617070726f76652066726f6d20746865207a65726f206164646044820152637265737360e01b606482015260840161058b565b6001600160a01b0382166109ae5760405162461bcd60e51b815260206004820152602260248201527f45524332303a20617070726f766520746f20746865207a65726f206164647265604482015261737360f01b606482015260840161058b565b6001600160a01b0383811660008181526001602090815260408083209487168084529482529182902085905590518481527f8c5be1e5ebec7d5bd14f71427d1e84f3dd0314c0f7b2291e5b200ac8c7c3b925910160405180910390a3505050565b6000610a1b84846108c0565b90506000198114610a835781811015610a765760405162461bcd60e51b815260206004820152601d60248201527f45524332303a20696e73756666696369656e7420616c6c6f77616e6365000000604482015260640161058b565b610a8384848484036108eb565b50505050565b6001600160a01b038316610aed5760405162461bcd60e51b815260206004820152602560248201527f45524332303a207472616e736665722066726f6d20746865207a65726f206164604482015264647265737360d81b606482015260840161058b565b6001600160a01b038216610b4f5760405162461bcd60e51b815260206004820152602360248201527f45524332303a207472616e7366657220746f20746865207a65726f206164647260448201526265737360e81b606482015260840161058b565b610b5a8383836110fd565b6001600160a01b03831660009081526020819052604090205481811015610bd25760405162461bcd60e51b815260206004820152602660248201527f45524332303a207472616e7366657220616d6f756e7420657863656564732062604482015265616c616e636560d01b606482015260840161058b565b6001600160a01b03808516600090815260208190526040808220858503905591851681529081208054849290610c099084906118df565b92505081905550826001600160a01b0316846001600160a01b03167fddf252ad1be2c89b69c2b068fc378daa952ba7f163c4a11628f55a4df523b3ef84604051610c5591815260200190565b60405180910390a3610a83565b6106028133611108565b610c76828261077b565b61059e5760008281526009602090815260408083206001600160a01b03851684529091529020805460ff19166001179055610cae3390565b6001600160a01b0316816001600160a01b0316837f2f8788117e7eff1d82e926ec794901d17c78024a50270940304540a733656f0d60405160405180910390a45050565b610cfc828261077b565b1561059e5760008281526009602090815260408083206001600160a01b0385168085529252808320805460ff1916905551339285917ff6391f5c32d9c69d2a47ea670b442974b53935d1edc7fd64eb21e047a839171b9190a45050565b6001600160a01b038216610daf5760405162461bcd60e51b815260206004820152601f60248201527f45524332303a206d696e7420746f20746865207a65726f206164647265737300604482015260640161058b565b610dbb600083836110fd565b8060026000828254610dcd91906118df565b90915550506001600160a01b03821660009081526020819052604081208054839290610dfa9084906118df565b90915550506040518181526001600160a01b038316906000907fddf252ad1be2c89b69c2b068fc378daa952ba7f163c4a11628f55a4df523b3ef9060200160405180910390a35050565b6001600160a01b038216610ea45760405162461bcd60e51b815260206004820152602160248201527f45524332303a206275726e2066726f6d20746865207a65726f206164647265736044820152607360f81b606482015260840161058b565b610eb0826000836110fd565b6001600160a01b03821660009081526020819052604090205481811015610f245760405162461bcd60e51b815260206004820152602260248201527f45524332303a206275726e20616d6f756e7420657863656564732062616c616e604482015261636560f01b606482015260840161058b565b6001600160a01b0383166000908152602081905260408120838303905560028054849290610f53908490611936565b90915550506040518281526000906001600160a01b038516907fddf252ad1be2c89b69c2b068fc378daa952ba7f163c4a11628f55a4df523b3ef9060200160405180910390a3505050565b60008060008411610fea5760405162461bcd60e51b815260206004820152601660248201527504552433230536e617073686f743a20696420697320360541b604482015260640161058b565b610ff261116c565b8411156110415760405162461bcd60e51b815260206004820152601d60248201527f4552433230536e617073686f743a206e6f6e6578697374656e74206964000000604482015260640161058b565b600061104d848661117c565b845490915081141561106657600080925092505061109c565b600184600101828154811061108b57634e487b7160e01b600052603260045260246000fd5b906000526020600020015492509250505b9250929050565b60006110b3600880546001019055565b60006110bd61116c565b90507f8030e83b04d87bef53480e26263266d6ca66863aa8506aca6f2559d18aa1cb67816040516110f091815260200190565b60405180910390a1919050565b61051a83838361125b565b611112828261077b565b61059e5761112a816001600160a01b031660146112a3565b6111358360206112a3565b6040516020016111469291906117e2565b60408051601f198184030181529082905262461bcd60e51b825261058b91600401611857565b600061117760085490565b905090565b815460009061118d57506000610421565b82546000905b808210156111f75760006111a7838361148c565b9050848682815481106111ca57634e487b7160e01b600052603260045260246000fd5b906000526020600020015411156111e3578091506111f1565b6111ee8160016118df565b92505b50611193565b60008211801561123a5750838561120f600185611936565b8154811061122d57634e487b7160e01b600052603260045260246000fd5b9060005260206000200154145b156112535761124a600183611936565b92505050610421565b509050610421565b6001600160a01b03831661127a57611272826114a7565b61051a6114d9565b6001600160a01b03821661129157611272836114a7565b61129a836114a7565b61051a826114a7565b606060006112b2836002611917565b6112bd9060026118df565b67ffffffffffffffff8111156112e357634e487b7160e01b600052604160045260246000fd5b6040519080825280601f01601f19166020018201604052801561130d576020820181803683370190505b509050600360fc1b8160008151811061133657634e487b7160e01b600052603260045260246000fd5b60200101906001600160f81b031916908160001a905350600f60fb1b8160018151811061137357634e487b7160e01b600052603260045260246000fd5b60200101906001600160f81b031916908160001a9053506000611397846002611917565b6113a29060016118df565b90505b6001811115611436576f181899199a1a9b1b9c1cb0b131b232b360811b85600f16601081106113e457634e487b7160e01b600052603260045260246000fd5b1a60f81b82828151811061140857634e487b7160e01b600052603260045260246000fd5b60200101906001600160f81b031916908160001a90535060049490941c9361142f81611979565b90506113a5565b5083156114855760405162461bcd60e51b815260206004820181905260248201527f537472696e67733a20686578206c656e67746820696e73756666696369656e74604482015260640161058b565b9392505050565b600061149b60028484186118f7565b611485908484166118df565b6001600160a01b0381166000908152600560209081526040808320918390529091205461060291906114e9565b6114e9565b6114e760066114d460025490565b565b60006114f361116c565b9050806114ff84611533565b101561051a578254600180820185556000858152602080822090930193909355938401805494850181558252902090910155565b805460009061154457506000919050565b8154829061155490600190611936565b8154811061157257634e487b7160e01b600052603260045260246000fd5b90600052602060002001549050919050565b919050565b80356001600160a01b038116811461158457600080fd5b600082601f8301126115b0578081fd5b813560206115c56115c0836118bb565b61188a565b80838252828201915082860187848660051b89010111156115e4578586fd5b855b85811015611602578135845292840192908401906001016115e6565b5090979650505050505050565b600060208284031215611620578081fd5b61148582611589565b6000806040838503121561163b578081fd5b61164483611589565b915061165260208401611589565b90509250929050565b60008060006060848603121561166f578081fd5b61167884611589565b925061168660208501611589565b9150604084013590509250925092565b600080604083850312156116a8578182fd5b6116b183611589565b946020939093013593505050565b600080604083850312156116d1578182fd5b823567ffffffffffffffff808211156116e8578384fd5b818501915085601f8301126116fb578384fd5b8135602061170b6115c0836118bb565b8083825282820191508286018a848660051b890101111561172a578889fd5b8896505b848710156117535761173f81611589565b83526001969096019591830191830161172e565b5096505086013592505080821115611769578283fd5b50611776858286016115a0565b9150509250929050565b600060208284031215611791578081fd5b5035919050565b600080604083850312156117aa578182fd5b8235915061165260208401611589565b6000602082840312156117cb578081fd5b81356001600160e01b031981168114611485578182fd5b7f416363657373436f6e74726f6c3a206163636f756e742000000000000000000081526000835161181a81601785016020880161194d565b7001034b99036b4b9b9b4b733903937b6329607d1b601791840191820152835161184b81602884016020880161194d565b01602801949350505050565b602081526000825180602084015261187681604085016020870161194d565b601f01601f19169190910160400192915050565b604051601f8201601f1916810167ffffffffffffffff811182821017156118b3576118b36119fc565b604052919050565b600067ffffffffffffffff8211156118d5576118d56119fc565b5060051b60200190565b600082198211156118f2576118f26119e6565b500190565b60008261191257634e487b7160e01b81526012600452602481fd5b500490565b6000816000190483118215151615611931576119316119e6565b500290565b600082821015611948576119486119e6565b500390565b60005b83811015611968578181015183820152602001611950565b83811115610a835750506000910152565b600081611988576119886119e6565b506000190190565b600181811c908216806119a457607f821691505b602082108114156119c557634e487b7160e01b600052602260045260246000fd5b50919050565b60006000198214156119df576119df6119e6565b5060010190565b634e487b7160e01b600052601160045260246000fd5b634e487b7160e01b600052604160045260246000fdfea2646970667358221220fee7ab5b06f7f8f08ad4faf023039365f8263919ecb4b65a1dcfa6081a0eb77064736f6c63430008040033",
  "linkReferences": {},
  "deployedLinkReferences": {}
}